Archive member included to satisfy reference by file (symbol)

C:\Users\ngent\Documents\MCUXpressoIDE_11.2.0_4120\workspace\lpc_chip_175x_6x\Debug\liblpc_chip_175x_6x.a(chip_17xx_40xx.o)
                              ./src/GSM.o (SystemCoreClockUpdate)
C:\Users\ngent\Documents\MCUXpressoIDE_11.2.0_4120\workspace\lpc_chip_175x_6x\Debug\liblpc_chip_175x_6x.a(clock_17xx_40xx.o)
                              C:\Users\ngent\Documents\MCUXpressoIDE_11.2.0_4120\workspace\lpc_chip_175x_6x\Debug\liblpc_chip_175x_6x.a(chip_17xx_40xx.o) (Chip_Clock_EnablePLL)
C:\Users\ngent\Documents\MCUXpressoIDE_11.2.0_4120\workspace\lpc_chip_175x_6x\Debug\liblpc_chip_175x_6x.a(iocon_17xx_40xx.o)
                              ./src/GSM.o (Chip_IOCON_PinMuxSet)
C:\Users\ngent\Documents\MCUXpressoIDE_11.2.0_4120\workspace\lpc_chip_175x_6x\Debug\liblpc_chip_175x_6x.a(ring_buffer.o)
                              ./src/GSM.o (RingBuffer_Init)
C:\Users\ngent\Documents\MCUXpressoIDE_11.2.0_4120\workspace\lpc_chip_175x_6x\Debug\liblpc_chip_175x_6x.a(sysinit_17xx_40xx.o)
                              ./src/sysinit.o (Chip_SystemInit)
C:\Users\ngent\Documents\MCUXpressoIDE_11.2.0_4120\workspace\lpc_chip_175x_6x\Debug\liblpc_chip_175x_6x.a(timer_17xx_40xx.o)
                              ./src/GSM.o (Chip_TIMER_Init)
C:\Users\ngent\Documents\MCUXpressoIDE_11.2.0_4120\workspace\lpc_chip_175x_6x\Debug\liblpc_chip_175x_6x.a(uart_17xx_40xx.o)
                              ./src/GSM.o (Chip_UART_Init)
c:/nxp/mcuxpressoide_11.2.0_4120/ide/plugins/com.nxp.mcuxpresso.tools.win32_11.2.0.202001021529/tools/bin/../lib/gcc/arm-none-eabi/9.2.1/../../../../arm-none-eabi/lib/thumb/v7-m/nofp\libcr_c.a(memcpy.o)
                              C:\Users\ngent\Documents\MCUXpressoIDE_11.2.0_4120\workspace\lpc_chip_175x_6x\Debug\liblpc_chip_175x_6x.a(ring_buffer.o) (memcpy)
c:/nxp/mcuxpressoide_11.2.0_4120/ide/plugins/com.nxp.mcuxpresso.tools.win32_11.2.0.202001021529/tools/bin/../lib/gcc/arm-none-eabi/9.2.1/../../../../arm-none-eabi/lib/thumb/v7-m/nofp\libcr_c.a(__weak__main.o)
                              ./src/cr_startup_lpc175x_6x.o (__main)
c:/nxp/mcuxpressoide_11.2.0_4120/ide/plugins/com.nxp.mcuxpresso.tools.win32_11.2.0.202001021529/tools/bin/../lib/gcc/arm-none-eabi/9.2.1/thumb/v7-m/nofp\libcr_eabihelpers.a(division_64.o)
                              C:\Users\ngent\Documents\MCUXpressoIDE_11.2.0_4120\workspace\lpc_chip_175x_6x\Debug\liblpc_chip_175x_6x.a(uart_17xx_40xx.o) (__aeabi_uldivmod)
c:/nxp/mcuxpressoide_11.2.0_4120/ide/plugins/com.nxp.mcuxpresso.tools.win32_11.2.0.202001021529/tools/bin/../lib/gcc/arm-none-eabi/9.2.1/thumb/v7-m/nofp\libcr_eabihelpers.a(division_idiv0.o)
                              c:/nxp/mcuxpressoide_11.2.0_4120/ide/plugins/com.nxp.mcuxpresso.tools.win32_11.2.0.202001021529/tools/bin/../lib/gcc/arm-none-eabi/9.2.1/thumb/v7-m/nofp\libcr_eabihelpers.a(division_64.o) (__aeabi_idiv0)
c:/nxp/mcuxpressoide_11.2.0_4120/ide/plugins/com.nxp.mcuxpresso.tools.win32_11.2.0.202001021529/tools/bin/../lib/gcc/arm-none-eabi/9.2.1/thumb/v7-m/nofp\libcr_eabihelpers.a(memcpy.o)
                              c:/nxp/mcuxpressoide_11.2.0_4120/ide/plugins/com.nxp.mcuxpresso.tools.win32_11.2.0.202001021529/tools/bin/../lib/gcc/arm-none-eabi/9.2.1/../../../../arm-none-eabi/lib/thumb/v7-m/nofp\libcr_c.a(memcpy.o) (__aeabi_memcpy)

Allocating common symbols
Common symbol       size              file

SystemCoreClock     0x4               C:\Users\ngent\Documents\MCUXpressoIDE_11.2.0_4120\workspace\lpc_chip_175x_6x\Debug\liblpc_chip_175x_6x.a(chip_17xx_40xx.o)

Discarded input sections

 .group         0x00000000        0xc ./src/GSM.o
 .group         0x00000000        0xc ./src/GSM.o
 .group         0x00000000        0xc ./src/GSM.o
 .group         0x00000000        0xc ./src/GSM.o
 .group         0x00000000        0xc ./src/GSM.o
 .group         0x00000000        0xc ./src/GSM.o
 .group         0x00000000        0xc ./src/GSM.o
 .group         0x00000000        0xc ./src/GSM.o
 .group         0x00000000        0xc ./src/GSM.o
 .group         0x00000000        0xc ./src/GSM.o
 .group         0x00000000        0xc ./src/GSM.o
 .group         0x00000000        0xc ./src/GSM.o
 .group         0x00000000        0xc ./src/GSM.o
 .group         0x00000000        0xc ./src/GSM.o
 .group         0x00000000        0xc ./src/GSM.o
 .group         0x00000000        0xc ./src/GSM.o
 .group         0x00000000        0xc ./src/GSM.o
 .group         0x00000000        0xc ./src/GSM.o
Memory Configuration

Name             Origin             Length             Attributes
MFlash512        0x00000000         0x00080000         xr
RamLoc32         0x10000000         0x00008000         xrw
RamAHB32         0x2007c000         0x00008000         xrw
*default*        0x00000000         0xffffffff

Linker script and memory map

LOAD ./src/GSM.o
LOAD ./src/cr_startup_lpc175x_6x.o
LOAD ./src/crp.o
LOAD ./src/sysinit.o
LOAD C:\Users\ngent\Documents\MCUXpressoIDE_11.2.0_4120\workspace\lpc_chip_175x_6x\Debug\liblpc_chip_175x_6x.a
START GROUP
LOAD c:/nxp/mcuxpressoide_11.2.0_4120/ide/plugins/com.nxp.mcuxpresso.tools.win32_11.2.0.202001021529/tools/bin/../lib/gcc/arm-none-eabi/9.2.1/../../../../arm-none-eabi/lib/thumb/v7-m/nofp\libcr_c.a
LOAD c:/nxp/mcuxpressoide_11.2.0_4120/ide/plugins/com.nxp.mcuxpresso.tools.win32_11.2.0.202001021529/tools/bin/../lib/gcc/arm-none-eabi/9.2.1/thumb/v7-m/nofp\libcr_eabihelpers.a
LOAD c:/nxp/mcuxpressoide_11.2.0_4120/ide/plugins/com.nxp.mcuxpresso.tools.win32_11.2.0.202001021529/tools/bin/../lib/gcc/arm-none-eabi/9.2.1/thumb/v7-m/nofp\libgcc.a
END GROUP
                0x00000000                __base_MFlash512 = 0x0
                0x00000000                __base_Flash = 0x0
                0x00080000                __top_MFlash512 = 0x80000
                0x00080000                __top_Flash = 0x80000
                0x10000000                __base_RamLoc32 = 0x10000000
                0x10000000                __base_RAM = 0x10000000
                0x10008000                __top_RamLoc32 = 0x10008000
                0x10008000                __top_RAM = 0x10008000
                0x2007c000                __base_RamAHB32 = 0x2007c000
                0x2007c000                __base_RAM2 = 0x2007c000
                0x20084000                __top_RamAHB32 = 0x20084000
                0x20084000                __top_RAM2 = 0x20084000

.text           0x00000000     0x19c0
 FILL mask 0xff
                0x00000000                __vectors_start__ = ABSOLUTE (.)
 *(.isr_vector)
 .isr_vector    0x00000000       0xcc ./src/cr_startup_lpc175x_6x.o
                0x00000000                g_pfnVectors
                0x000000cc                . = ALIGN (0x4)
                0x000000cc                __section_table_start = .
                0x000000cc                __data_section_table = .
                0x000000cc        0x4 LONG 0x19c0 LOADADDR (.data)
                0x000000d0        0x4 LONG 0x10000000 ADDR (.data)
                0x000000d4        0x4 LONG 0x1c SIZEOF (.data)
                0x000000d8        0x4 LONG 0x19c0 LOADADDR (.data_RAM2)
                0x000000dc        0x4 LONG 0x2007c000 ADDR (.data_RAM2)
                0x000000e0        0x4 LONG 0x0 SIZEOF (.data_RAM2)
                0x000000e4                __data_section_table_end = .
                0x000000e4                __bss_section_table = .
                0x000000e4        0x4 LONG 0x1000001c ADDR (.bss)
                0x000000e8        0x4 LONG 0x384 SIZEOF (.bss)
                0x000000ec        0x4 LONG 0x2007c000 ADDR (.bss_RAM2)
                0x000000f0        0x4 LONG 0x0 SIZEOF (.bss_RAM2)
                0x000000f4                __bss_section_table_end = .
                0x000000f4                __section_table_end = .
 *(.after_vectors*)
 .after_vectors
                0x000000f4      0x130 ./src/cr_startup_lpc175x_6x.o
                0x000000f4                data_init
                0x00000138                bss_init
                0x00000170                ResetISR
                0x000001e8                NMI_Handler
                0x000001ee                HardFault_Handler
                0x000001f4                MemManage_Handler
                0x000001fa                BusFault_Handler
                0x00000200                UsageFault_Handler
                0x00000206                SVC_Handler
                0x0000020c                DebugMon_Handler
                0x00000212                PendSV_Handler
                0x00000218                SysTick_Handler
                0x0000021e                EINT3_IRQHandler
                0x0000021e                CANActivity_IRQHandler
                0x0000021e                TIMER3_IRQHandler
                0x0000021e                UART0_IRQHandler
                0x0000021e                UART1_IRQHandler
                0x0000021e                EINT2_IRQHandler
                0x0000021e                USBActivity_IRQHandler
                0x0000021e                IntDefaultHandler
                0x0000021e                PLL0_IRQHandler
                0x0000021e                I2C0_IRQHandler
                0x0000021e                I2C1_IRQHandler
                0x0000021e                SSP0_IRQHandler
                0x0000021e                I2S_IRQHandler
                0x0000021e                I2C2_IRQHandler
                0x0000021e                RTC_IRQHandler
                0x0000021e                SPI_IRQHandler
                0x0000021e                RIT_IRQHandler
                0x0000021e                EINT1_IRQHandler
                0x0000021e                TIMER1_IRQHandler
                0x0000021e                UART2_IRQHandler
                0x0000021e                ADC_IRQHandler
                0x0000021e                SSP1_IRQHandler
                0x0000021e                USB_IRQHandler
                0x0000021e                BOD_IRQHandler
                0x0000021e                PLL1_IRQHandler
                0x0000021e                WDT_IRQHandler
                0x0000021e                PWM1_IRQHandler
                0x0000021e                QEI_IRQHandler
                0x0000021e                EINT0_IRQHandler
                0x0000021e                ETH_IRQHandler
                0x0000021e                CAN_IRQHandler
                0x0000021e                DMA_IRQHandler
                0x0000021e                TIMER2_IRQHandler
                0x0000021e                MCPWM_IRQHandler
                0x000002fc                . = 0x2fc
 *fill*         0x00000224       0xd8 ff
                0x000002fc                PROVIDE (__CRP_WORD_START__ = .)
 *(.crp)
 .crp           0x000002fc        0x4 ./src/crp.o
                0x000002fc                CRP_WORD
                0x00000300                PROVIDE (__CRP_WORD_END__ = .)
                0x00000001                ASSERT (! ((__CRP_WORD_START__ == __CRP_WORD_END__)), Linker CRP Enabled, but no CRP_WORD provided within application)
 *(.text*)
 .text.NVIC_EnableIRQ
                0x00000300       0x30 ./src/GSM.o
 .text.NVIC_ClearPendingIRQ
                0x00000330       0x34 ./src/GSM.o
 .text.NVIC_SetPriority
                0x00000364       0x54 ./src/GSM.o
 .text.Chip_TIMER_MatchPending
                0x000003b8       0x32 ./src/GSM.o
 .text.Chip_TIMER_ClearMatch
                0x000003ea       0x26 ./src/GSM.o
 .text.Chip_TIMER_Enable
                0x00000410       0x1e ./src/GSM.o
 .text.Chip_TIMER_SetMatch
                0x0000042e       0x26 ./src/GSM.o
 .text.Chip_TIMER_MatchEnableInt
                0x00000454       0x32 ./src/GSM.o
 .text.Chip_TIMER_ResetOnMatchEnable
                0x00000486       0x34 ./src/GSM.o
 .text.Chip_UART_SendByte
                0x000004ba       0x1c ./src/GSM.o
 .text.Chip_UART_IntEnable
                0x000004d6       0x20 ./src/GSM.o
 .text.Chip_UART_SetupFIFOS
                0x000004f6       0x1a ./src/GSM.o
 .text.Chip_UART_ConfigData
                0x00000510       0x1a ./src/GSM.o
 *fill*         0x0000052a        0x2 ff
 .text.UART3_IRQHandler
                0x0000052c       0x20 ./src/GSM.o
                0x0000052c                UART3_IRQHandler
 .text.TIMER0_IRQHandler
                0x0000054c       0x4c ./src/GSM.o
                0x0000054c                TIMER0_IRQHandler
 .text.main     0x00000598       0x30 ./src/GSM.o
                0x00000598                main
 .text.init_uart
                0x000005c8       0x98 ./src/GSM.o
                0x000005c8                init_uart
 .text.init_timer
                0x00000660       0x68 ./src/GSM.o
                0x00000660                init_timer
 .text.SerialDisponible
                0x000006c8       0x38 ./src/GSM.o
                0x000006c8                SerialDisponible
 .text.init_gsm
                0x00000700       0xe4 ./src/GSM.o
                0x00000700                init_gsm
 .text.lecturagsm
                0x000007e4      0x100 ./src/GSM.o
                0x000007e4                lecturagsm
 .text.enviocoordenadas
                0x000008e4       0x5c ./src/GSM.o
                0x000008e4                enviocoordenadas
 .text.obtengonumero
                0x00000940       0xac ./src/GSM.o
                0x00000940                obtengonumero
 .text.SystemInit
                0x000009ec       0x24 ./src/sysinit.o
                0x000009ec                SystemInit
 .text.SystemCoreClockUpdate
                0x00000a10       0x18 C:\Users\ngent\Documents\MCUXpressoIDE_11.2.0_4120\workspace\lpc_chip_175x_6x\Debug\liblpc_chip_175x_6x.a(chip_17xx_40xx.o)
                0x00000a10                SystemCoreClockUpdate
 .text.Chip_Clock_IsMainPLLEnabled
                0x00000a28       0x24 C:\Users\ngent\Documents\MCUXpressoIDE_11.2.0_4120\workspace\lpc_chip_175x_6x\Debug\liblpc_chip_175x_6x.a(clock_17xx_40xx.o)
 .text.Chip_Clock_IsMainPLLConnected
                0x00000a4c       0x24 C:\Users\ngent\Documents\MCUXpressoIDE_11.2.0_4120\workspace\lpc_chip_175x_6x\Debug\liblpc_chip_175x_6x.a(clock_17xx_40xx.o)
 .text.Chip_Clock_FeedPLL
                0x00000a70       0x34 C:\Users\ngent\Documents\MCUXpressoIDE_11.2.0_4120\workspace\lpc_chip_175x_6x\Debug\liblpc_chip_175x_6x.a(clock_17xx_40xx.o)
 .text.Chip_Clock_GetMainPLLSource
                0x00000aa4       0x20 C:\Users\ngent\Documents\MCUXpressoIDE_11.2.0_4120\workspace\lpc_chip_175x_6x\Debug\liblpc_chip_175x_6x.a(clock_17xx_40xx.o)
 .text.Chip_Clock_GetMainOscRate
                0x00000ac4       0x14 C:\Users\ngent\Documents\MCUXpressoIDE_11.2.0_4120\workspace\lpc_chip_175x_6x\Debug\liblpc_chip_175x_6x.a(clock_17xx_40xx.o)
 .text.Chip_Clock_GetIntOscRate
                0x00000ad8       0x14 C:\Users\ngent\Documents\MCUXpressoIDE_11.2.0_4120\workspace\lpc_chip_175x_6x\Debug\liblpc_chip_175x_6x.a(clock_17xx_40xx.o)
 .text.Chip_Clock_GetRTCOscRate
                0x00000aec       0x14 C:\Users\ngent\Documents\MCUXpressoIDE_11.2.0_4120\workspace\lpc_chip_175x_6x\Debug\liblpc_chip_175x_6x.a(clock_17xx_40xx.o)
 .text.Chip_Clock_GetMainPLLInClockRate
                0x00000b00        0xe C:\Users\ngent\Documents\MCUXpressoIDE_11.2.0_4120\workspace\lpc_chip_175x_6x\Debug\liblpc_chip_175x_6x.a(clock_17xx_40xx.o)
 *fill*         0x00000b0e        0x2 ff
 .text.Chip_Clock_EnablePLL
                0x00000b10       0x44 C:\Users\ngent\Documents\MCUXpressoIDE_11.2.0_4120\workspace\lpc_chip_175x_6x\Debug\liblpc_chip_175x_6x.a(clock_17xx_40xx.o)
                0x00000b10                Chip_Clock_EnablePLL
 .text.Chip_Clock_DisablePLL
                0x00000b54       0x48 C:\Users\ngent\Documents\MCUXpressoIDE_11.2.0_4120\workspace\lpc_chip_175x_6x\Debug\liblpc_chip_175x_6x.a(clock_17xx_40xx.o)
                0x00000b54                Chip_Clock_DisablePLL
 .text.Chip_Clock_SetupPLL
                0x00000b9c       0x5c C:\Users\ngent\Documents\MCUXpressoIDE_11.2.0_4120\workspace\lpc_chip_175x_6x\Debug\liblpc_chip_175x_6x.a(clock_17xx_40xx.o)
                0x00000b9c                Chip_Clock_SetupPLL
 .text.Chip_Clock_EnablePeriphClock
                0x00000bf8       0x34 C:\Users\ngent\Documents\MCUXpressoIDE_11.2.0_4120\workspace\lpc_chip_175x_6x\Debug\liblpc_chip_175x_6x.a(clock_17xx_40xx.o)
                0x00000bf8                Chip_Clock_EnablePeriphClock
 .text.Chip_Clock_GetCPUClockSource
                0x00000c2c       0x24 C:\Users\ngent\Documents\MCUXpressoIDE_11.2.0_4120\workspace\lpc_chip_175x_6x\Debug\liblpc_chip_175x_6x.a(clock_17xx_40xx.o)
                0x00000c2c                Chip_Clock_GetCPUClockSource
 .text.Chip_Clock_SetCPUClockDiv
                0x00000c50       0x20 C:\Users\ngent\Documents\MCUXpressoIDE_11.2.0_4120\workspace\lpc_chip_175x_6x\Debug\liblpc_chip_175x_6x.a(clock_17xx_40xx.o)
                0x00000c50                Chip_Clock_SetCPUClockDiv
 .text.Chip_Clock_GetCPUClockDiv
                0x00000c70       0x1c C:\Users\ngent\Documents\MCUXpressoIDE_11.2.0_4120\workspace\lpc_chip_175x_6x\Debug\liblpc_chip_175x_6x.a(clock_17xx_40xx.o)
                0x00000c70                Chip_Clock_GetCPUClockDiv
 .text.Chip_Clock_GetPCLKDiv
                0x00000c8c       0x8c C:\Users\ngent\Documents\MCUXpressoIDE_11.2.0_4120\workspace\lpc_chip_175x_6x\Debug\liblpc_chip_175x_6x.a(clock_17xx_40xx.o)
                0x00000c8c                Chip_Clock_GetPCLKDiv
 .text.Chip_Clock_GetSYSCLKRate
                0x00000d18       0x3a C:\Users\ngent\Documents\MCUXpressoIDE_11.2.0_4120\workspace\lpc_chip_175x_6x\Debug\liblpc_chip_175x_6x.a(clock_17xx_40xx.o)
                0x00000d18                Chip_Clock_GetSYSCLKRate
 *fill*         0x00000d52        0x2 ff
 .text.Chip_Clock_GetMainPLLOutClockRate
                0x00000d54       0x54 C:\Users\ngent\Documents\MCUXpressoIDE_11.2.0_4120\workspace\lpc_chip_175x_6x\Debug\liblpc_chip_175x_6x.a(clock_17xx_40xx.o)
                0x00000d54                Chip_Clock_GetMainPLLOutClockRate
 .text.Chip_Clock_GetMainClockRate
                0x00000da8       0x28 C:\Users\ngent\Documents\MCUXpressoIDE_11.2.0_4120\workspace\lpc_chip_175x_6x\Debug\liblpc_chip_175x_6x.a(clock_17xx_40xx.o)
                0x00000da8                Chip_Clock_GetMainClockRate
 .text.Chip_Clock_GetSystemClockRate
                0x00000dd0       0x18 C:\Users\ngent\Documents\MCUXpressoIDE_11.2.0_4120\workspace\lpc_chip_175x_6x\Debug\liblpc_chip_175x_6x.a(clock_17xx_40xx.o)
                0x00000dd0                Chip_Clock_GetSystemClockRate
 .text.Chip_Clock_GetPeripheralClockRate
                0x00000de8       0x26 C:\Users\ngent\Documents\MCUXpressoIDE_11.2.0_4120\workspace\lpc_chip_175x_6x\Debug\liblpc_chip_175x_6x.a(clock_17xx_40xx.o)
                0x00000de8                Chip_Clock_GetPeripheralClockRate
 .text.Chip_IOCON_PinMuxSet
                0x00000e0e       0x36 C:\Users\ngent\Documents\MCUXpressoIDE_11.2.0_4120\workspace\lpc_chip_175x_6x\Debug\liblpc_chip_175x_6x.a(iocon_17xx_40xx.o)
                0x00000e0e                Chip_IOCON_PinMuxSet
 .text.Chip_IOCON_PinMux
                0x00000e44       0x94 C:\Users\ngent\Documents\MCUXpressoIDE_11.2.0_4120\workspace\lpc_chip_175x_6x\Debug\liblpc_chip_175x_6x.a(iocon_17xx_40xx.o)
                0x00000e44                Chip_IOCON_PinMux
 .text.RingBuffer_GetCount
                0x00000ed8       0x20 C:\Users\ngent\Documents\MCUXpressoIDE_11.2.0_4120\workspace\lpc_chip_175x_6x\Debug\liblpc_chip_175x_6x.a(ring_buffer.o)
 .text.RingBuffer_GetFree
                0x00000ef8       0x1e C:\Users\ngent\Documents\MCUXpressoIDE_11.2.0_4120\workspace\lpc_chip_175x_6x\Debug\liblpc_chip_175x_6x.a(ring_buffer.o)
 .text.RingBuffer_IsFull
                0x00000f16       0x26 C:\Users\ngent\Documents\MCUXpressoIDE_11.2.0_4120\workspace\lpc_chip_175x_6x\Debug\liblpc_chip_175x_6x.a(ring_buffer.o)
 .text.RingBuffer_IsEmpty
                0x00000f3c       0x28 C:\Users\ngent\Documents\MCUXpressoIDE_11.2.0_4120\workspace\lpc_chip_175x_6x\Debug\liblpc_chip_175x_6x.a(ring_buffer.o)
 .text.RingBuffer_Init
                0x00000f64       0x3a C:\Users\ngent\Documents\MCUXpressoIDE_11.2.0_4120\workspace\lpc_chip_175x_6x\Debug\liblpc_chip_175x_6x.a(ring_buffer.o)
                0x00000f64                RingBuffer_Init
 .text.RingBuffer_Insert
                0x00000f9e       0x5c C:\Users\ngent\Documents\MCUXpressoIDE_11.2.0_4120\workspace\lpc_chip_175x_6x\Debug\liblpc_chip_175x_6x.a(ring_buffer.o)
                0x00000f9e                RingBuffer_Insert
 .text.RingBuffer_InsertMult
                0x00000ffa      0x122 C:\Users\ngent\Documents\MCUXpressoIDE_11.2.0_4120\workspace\lpc_chip_175x_6x\Debug\liblpc_chip_175x_6x.a(ring_buffer.o)
                0x00000ffa                RingBuffer_InsertMult
 .text.RingBuffer_Pop
                0x0000111c       0x5c C:\Users\ngent\Documents\MCUXpressoIDE_11.2.0_4120\workspace\lpc_chip_175x_6x\Debug\liblpc_chip_175x_6x.a(ring_buffer.o)
                0x0000111c                RingBuffer_Pop
 .text.RingBuffer_PopMult
                0x00001178      0x122 C:\Users\ngent\Documents\MCUXpressoIDE_11.2.0_4120\workspace\lpc_chip_175x_6x\Debug\liblpc_chip_175x_6x.a(ring_buffer.o)
                0x00001178                RingBuffer_PopMult
 *fill*         0x0000129a        0x2 ff
 .text.Chip_Clock_IsMainPLLEnabled
                0x0000129c       0x24 C:\Users\ngent\Documents\MCUXpressoIDE_11.2.0_4120\workspace\lpc_chip_175x_6x\Debug\liblpc_chip_175x_6x.a(sysinit_17xx_40xx.o)
 .text.Chip_Clock_IsMainPLLLocked
                0x000012c0       0x24 C:\Users\ngent\Documents\MCUXpressoIDE_11.2.0_4120\workspace\lpc_chip_175x_6x\Debug\liblpc_chip_175x_6x.a(sysinit_17xx_40xx.o)
 .text.Chip_Clock_IsMainPLLConnected
                0x000012e4       0x24 C:\Users\ngent\Documents\MCUXpressoIDE_11.2.0_4120\workspace\lpc_chip_175x_6x\Debug\liblpc_chip_175x_6x.a(sysinit_17xx_40xx.o)
 .text.Chip_Clock_SetMainPLLSource
                0x00001308       0x20 C:\Users\ngent\Documents\MCUXpressoIDE_11.2.0_4120\workspace\lpc_chip_175x_6x\Debug\liblpc_chip_175x_6x.a(sysinit_17xx_40xx.o)
 .text.Chip_SetupIrcClocking
                0x00001328       0x6a C:\Users\ngent\Documents\MCUXpressoIDE_11.2.0_4120\workspace\lpc_chip_175x_6x\Debug\liblpc_chip_175x_6x.a(sysinit_17xx_40xx.o)
                0x00001328                Chip_SetupIrcClocking
 .text.Chip_SystemInit
                0x00001392        0xc C:\Users\ngent\Documents\MCUXpressoIDE_11.2.0_4120\workspace\lpc_chip_175x_6x\Debug\liblpc_chip_175x_6x.a(sysinit_17xx_40xx.o)
                0x00001392                Chip_SystemInit
 *fill*         0x0000139e        0x2 ff
 .text.Chip_Timer_GetClockIndex
                0x000013a0       0x50 C:\Users\ngent\Documents\MCUXpressoIDE_11.2.0_4120\workspace\lpc_chip_175x_6x\Debug\liblpc_chip_175x_6x.a(timer_17xx_40xx.o)
 .text.Chip_TIMER_Init
                0x000013f0       0x1e C:\Users\ngent\Documents\MCUXpressoIDE_11.2.0_4120\workspace\lpc_chip_175x_6x\Debug\liblpc_chip_175x_6x.a(timer_17xx_40xx.o)
                0x000013f0                Chip_TIMER_Init
 .text.Chip_TIMER_Reset
                0x0000140e       0x3a C:\Users\ngent\Documents\MCUXpressoIDE_11.2.0_4120\workspace\lpc_chip_175x_6x\Debug\liblpc_chip_175x_6x.a(timer_17xx_40xx.o)
                0x0000140e                Chip_TIMER_Reset
 .text.RingBuffer_IsEmpty
                0x00001448       0x28 C:\Users\ngent\Documents\MCUXpressoIDE_11.2.0_4120\workspace\lpc_chip_175x_6x\Debug\liblpc_chip_175x_6x.a(uart_17xx_40xx.o)
 .text.Chip_UART_SendByte
                0x00001470       0x1c C:\Users\ngent\Documents\MCUXpressoIDE_11.2.0_4120\workspace\lpc_chip_175x_6x\Debug\liblpc_chip_175x_6x.a(uart_17xx_40xx.o)
 .text.Chip_UART_ReadByte
                0x0000148c       0x18 C:\Users\ngent\Documents\MCUXpressoIDE_11.2.0_4120\workspace\lpc_chip_175x_6x\Debug\liblpc_chip_175x_6x.a(uart_17xx_40xx.o)
 .text.Chip_UART_IntEnable
                0x000014a4       0x20 C:\Users\ngent\Documents\MCUXpressoIDE_11.2.0_4120\workspace\lpc_chip_175x_6x\Debug\liblpc_chip_175x_6x.a(uart_17xx_40xx.o)
 .text.Chip_UART_IntDisable
                0x000014c4       0x22 C:\Users\ngent\Documents\MCUXpressoIDE_11.2.0_4120\workspace\lpc_chip_175x_6x\Debug\liblpc_chip_175x_6x.a(uart_17xx_40xx.o)
 .text.Chip_UART_ReadIntIDReg
                0x000014e6       0x16 C:\Users\ngent\Documents\MCUXpressoIDE_11.2.0_4120\workspace\lpc_chip_175x_6x\Debug\liblpc_chip_175x_6x.a(uart_17xx_40xx.o)
 .text.Chip_UART_SetupFIFOS
                0x000014fc       0x1a C:\Users\ngent\Documents\MCUXpressoIDE_11.2.0_4120\workspace\lpc_chip_175x_6x\Debug\liblpc_chip_175x_6x.a(uart_17xx_40xx.o)
 .text.Chip_UART_ConfigData
                0x00001516       0x1a C:\Users\ngent\Documents\MCUXpressoIDE_11.2.0_4120\workspace\lpc_chip_175x_6x\Debug\liblpc_chip_175x_6x.a(uart_17xx_40xx.o)
 .text.Chip_UART_EnableDivisorAccess
                0x00001530       0x1e C:\Users\ngent\Documents\MCUXpressoIDE_11.2.0_4120\workspace\lpc_chip_175x_6x\Debug\liblpc_chip_175x_6x.a(uart_17xx_40xx.o)
 .text.Chip_UART_DisableDivisorAccess
                0x0000154e       0x1e C:\Users\ngent\Documents\MCUXpressoIDE_11.2.0_4120\workspace\lpc_chip_175x_6x\Debug\liblpc_chip_175x_6x.a(uart_17xx_40xx.o)
 .text.Chip_UART_SetDivisorLatches
                0x0000156c       0x26 C:\Users\ngent\Documents\MCUXpressoIDE_11.2.0_4120\workspace\lpc_chip_175x_6x\Debug\liblpc_chip_175x_6x.a(uart_17xx_40xx.o)
 .text.Chip_UART_ReadLineStatus
                0x00001592       0x16 C:\Users\ngent\Documents\MCUXpressoIDE_11.2.0_4120\workspace\lpc_chip_175x_6x\Debug\liblpc_chip_175x_6x.a(uart_17xx_40xx.o)
 .text.Chip_UART_SetAutoBaudReg
                0x000015a8       0x20 C:\Users\ngent\Documents\MCUXpressoIDE_11.2.0_4120\workspace\lpc_chip_175x_6x\Debug\liblpc_chip_175x_6x.a(uart_17xx_40xx.o)
 .text.Chip_UART_GetClockIndex
                0x000015c8       0x50 C:\Users\ngent\Documents\MCUXpressoIDE_11.2.0_4120\workspace\lpc_chip_175x_6x\Debug\liblpc_chip_175x_6x.a(uart_17xx_40xx.o)
 .text.Chip_UART_ABIntHandler
                0x00001618       0x6c C:\Users\ngent\Documents\MCUXpressoIDE_11.2.0_4120\workspace\lpc_chip_175x_6x\Debug\liblpc_chip_175x_6x.a(uart_17xx_40xx.o)
 .text.Chip_UART_GetClkIndex
                0x00001684       0x50 C:\Users\ngent\Documents\MCUXpressoIDE_11.2.0_4120\workspace\lpc_chip_175x_6x\Debug\liblpc_chip_175x_6x.a(uart_17xx_40xx.o)
 .text.Chip_UART_Init
                0x000016d4       0x78 C:\Users\ngent\Documents\MCUXpressoIDE_11.2.0_4120\workspace\lpc_chip_175x_6x\Debug\liblpc_chip_175x_6x.a(uart_17xx_40xx.o)
                0x000016d4                Chip_UART_Init
 .text.Chip_UART_TXEnable
                0x0000174c       0x18 C:\Users\ngent\Documents\MCUXpressoIDE_11.2.0_4120\workspace\lpc_chip_175x_6x\Debug\liblpc_chip_175x_6x.a(uart_17xx_40xx.o)
                0x0000174c                Chip_UART_TXEnable
 .text.Chip_UART_TXDisable
                0x00001764       0x18 C:\Users\ngent\Documents\MCUXpressoIDE_11.2.0_4120\workspace\lpc_chip_175x_6x\Debug\liblpc_chip_175x_6x.a(uart_17xx_40xx.o)
                0x00001764                Chip_UART_TXDisable
 .text.Chip_UART_SetBaud
                0x0000177c       0x62 C:\Users\ngent\Documents\MCUXpressoIDE_11.2.0_4120\workspace\lpc_chip_175x_6x\Debug\liblpc_chip_175x_6x.a(uart_17xx_40xx.o)
                0x0000177c                Chip_UART_SetBaud
 .text.Chip_UART_RXIntHandlerRB
                0x000017de       0x3c C:\Users\ngent\Documents\MCUXpressoIDE_11.2.0_4120\workspace\lpc_chip_175x_6x\Debug\liblpc_chip_175x_6x.a(uart_17xx_40xx.o)
                0x000017de                Chip_UART_RXIntHandlerRB
 .text.Chip_UART_TXIntHandlerRB
                0x0000181a       0x40 C:\Users\ngent\Documents\MCUXpressoIDE_11.2.0_4120\workspace\lpc_chip_175x_6x\Debug\liblpc_chip_175x_6x.a(uart_17xx_40xx.o)
                0x0000181a                Chip_UART_TXIntHandlerRB
 .text.Chip_UART_SendRB
                0x0000185a       0x60 C:\Users\ngent\Documents\MCUXpressoIDE_11.2.0_4120\workspace\lpc_chip_175x_6x\Debug\liblpc_chip_175x_6x.a(uart_17xx_40xx.o)
                0x0000185a                Chip_UART_SendRB
 .text.Chip_UART_ReadRB
                0x000018ba       0x22 C:\Users\ngent\Documents\MCUXpressoIDE_11.2.0_4120\workspace\lpc_chip_175x_6x\Debug\liblpc_chip_175x_6x.a(uart_17xx_40xx.o)
                0x000018ba                Chip_UART_ReadRB
 .text.Chip_UART_IRQRBHandler
                0x000018dc       0x4a C:\Users\ngent\Documents\MCUXpressoIDE_11.2.0_4120\workspace\lpc_chip_175x_6x\Debug\liblpc_chip_175x_6x.a(uart_17xx_40xx.o)
                0x000018dc                Chip_UART_IRQRBHandler
 .text.memcpy   0x00001926        0x4 c:/nxp/mcuxpressoide_11.2.0_4120/ide/plugins/com.nxp.mcuxpresso.tools.win32_11.2.0.202001021529/tools/bin/../lib/gcc/arm-none-eabi/9.2.1/../../../../arm-none-eabi/lib/thumb/v7-m/nofp\libcr_c.a(memcpy.o)
                0x00001926                memcpy
 .text.__weak_main
                0x0000192a        0x4 c:/nxp/mcuxpressoide_11.2.0_4120/ide/plugins/com.nxp.mcuxpresso.tools.win32_11.2.0.202001021529/tools/bin/../lib/gcc/arm-none-eabi/9.2.1/../../../../arm-none-eabi/lib/thumb/v7-m/nofp\libcr_c.a(__weak__main.o)
                0x0000192a                __weak_main
                0x0000192a                __main
 .text.__aeabi_memcpy
                0x0000192e       0x34 c:/nxp/mcuxpressoide_11.2.0_4120/ide/plugins/com.nxp.mcuxpresso.tools.win32_11.2.0.202001021529/tools/bin/../lib/gcc/arm-none-eabi/9.2.1/thumb/v7-m/nofp\libcr_eabihelpers.a(memcpy.o)
                0x0000192e                __aeabi_memcpy
                0x00001938                __aeabi_memcpy8
                0x00001938                __aeabi_memcpy4
 *(.rodata .rodata.* .constdata .constdata.*)
 *fill*         0x00001962        0x2 ff
 .rodata.inst1  0x00001964        0x5 ./src/GSM.o
                0x00001964                inst1
 *fill*         0x00001969        0x3 ff
 .rodata.inst2  0x0000196c        0xe ./src/GSM.o
                0x0000196c                inst2
 *fill*         0x0000197a        0x2 ff
 .rodata.inst3  0x0000197c        0xc ./src/GSM.o
                0x0000197c                inst3
 .rodata.inst4  0x00001988       0x14 ./src/GSM.o
                0x00001988                inst4
 .rodata.inst6  0x0000199c       0x19 ./src/GSM.o
                0x0000199c                inst6
 *fill*         0x000019b5        0x3 ff
 .rodata.OscRateIn
                0x000019b8        0x4 ./src/sysinit.o
                0x000019b8                OscRateIn
 .rodata.RTCOscRateIn
                0x000019bc        0x4 ./src/sysinit.o
                0x000019bc                RTCOscRateIn
                0x000019c0                . = ALIGN (0x4)

.glue_7         0x000019c0        0x0
 .glue_7        0x000019c0        0x0 linker stubs

.glue_7t        0x000019c0        0x0
 .glue_7t       0x000019c0        0x0 linker stubs

.vfp11_veneer   0x000019c0        0x0
 .vfp11_veneer  0x000019c0        0x0 linker stubs

.v4_bx          0x000019c0        0x0
 .v4_bx         0x000019c0        0x0 linker stubs

.iplt           0x000019c0        0x0
 .iplt          0x000019c0        0x0 ./src/GSM.o

.rel.dyn        0x000019c0        0x0
 .rel.iplt      0x000019c0        0x0 ./src/GSM.o

.ARM.extab
 *(.ARM.extab* .gnu.linkonce.armextab.*)

.ARM.exidx      0x000019c0        0x0
                0x000019c0                __exidx_start = .
 *(.ARM.exidx* .gnu.linkonce.armexidx.*)
                0x000019c0                __exidx_end = .
                0x000019c0                _etext = .

.data_RAM2      0x2007c000        0x0 load address 0x000019c0
 FILL mask 0xff
                [!provide]                PROVIDE (__start_data_RAM2 = .)
                [!provide]                PROVIDE (__start_data_RamAHB32 = .)
 *(.ramfunc.$RAM2)
 *(.ramfunc.$RamAHB32)
 *(.data.$RAM2)
 *(.data.$RamAHB32)
 *(.data.$RAM2.*)
 *(.data.$RamAHB32.*)
                0x2007c000                . = ALIGN (0x4)
                [!provide]                PROVIDE (__end_data_RAM2 = .)
                [!provide]                PROVIDE (__end_data_RamAHB32 = .)

.uninit_RESERVED
                0x10000000        0x0
                0x10000000                _start_uninit_RESERVED = .
 *(.bss.$RESERVED*)
                0x10000000                . = ALIGN (0x4)
                0x10000000                _end_uninit_RESERVED = .

.data           0x10000000       0x1c load address 0x000019c0
 FILL mask 0xff
                0x10000000                _data = .
                [!provide]                PROVIDE (__start_data_RAM = .)
                [!provide]                PROVIDE (__start_data_RamLoc32 = .)
 *(vtable)
 *(.ramfunc*)
 *(CodeQuickAccess)
 *(DataQuickAccess)
 *(RamFunction)
 *(.data*)
 .data.inst5    0x10000000       0x1b ./src/GSM.o
                0x10000000                inst5
                0x1000001c                . = ALIGN (0x4)
 *fill*         0x1000001b        0x1 ff
                0x1000001c                _edata = .
                [!provide]                PROVIDE (__end_data_RAM = .)
                [!provide]                PROVIDE (__end_data_RamLoc32 = .)

.igot.plt       0x1000001c        0x0 load address 0x000019dc
 .igot.plt      0x1000001c        0x0 ./src/GSM.o

.bss_RAM2       0x2007c000        0x0
                [!provide]                PROVIDE (__start_bss_RAM2 = .)
                [!provide]                PROVIDE (__start_bss_RamAHB32 = .)
 *(.bss.$RAM2)
 *(.bss.$RamAHB32)
 *(.bss.$RAM2.*)
 *(.bss.$RamAHB32.*)
                0x2007c000                . = ALIGN ((. != 0x0)?0x4:0x1)
                [!provide]                PROVIDE (__end_bss_RAM2 = .)
                [!provide]                PROVIDE (__end_bss_RamAHB32 = .)

.bss            0x1000001c      0x384
                0x1000001c                _bss = .
                [!provide]                PROVIDE (__start_bss_RAM = .)
                [!provide]                PROVIDE (__start_bss_RamLoc32 = .)
 *(.bss*)
 .bss.txring    0x1000001c       0x14 ./src/GSM.o
 .bss.rxring    0x10000030       0x14 ./src/GSM.o
 .bss.rxbuff    0x10000044      0x100 ./src/GSM.o
 .bss.txbuff    0x10000144      0x100 ./src/GSM.o
 .bss.sms       0x10000244       0x96 ./src/GSM.o
                0x10000244                sms
 *fill*         0x100002da        0x2 
 .bss.lectura   0x100002dc       0x96 ./src/GSM.o
                0x100002dc                lectura
 *fill*         0x10000372        0x2 
 .bss.check     0x10000374        0xa ./src/GSM.o
                0x10000374                check
 .bss.key       0x1000037e        0x1 ./src/GSM.o
                0x1000037e                key
 *fill*         0x1000037f        0x1 
 .bss.bytes     0x10000380        0x4 ./src/GSM.o
                0x10000380                bytes
 .bss.i         0x10000384        0x4 ./src/GSM.o
                0x10000384                i
 .bss.a         0x10000388        0x4 ./src/GSM.o
                0x10000388                a
 .bss.c         0x1000038c        0x4 ./src/GSM.o
                0x1000038c                c
 .bss.z         0x10000390        0x4 ./src/GSM.o
                0x10000390                z
 .bss.value.7174
                0x10000394        0x4 ./src/GSM.o
 .bss.ABsyncSts
                0x10000398        0x1 C:\Users\ngent\Documents\MCUXpressoIDE_11.2.0_4120\workspace\lpc_chip_175x_6x\Debug\liblpc_chip_175x_6x.a(uart_17xx_40xx.o)
 *(COMMON)
 *fill*         0x10000399        0x3 
 COMMON         0x1000039c        0x4 C:\Users\ngent\Documents\MCUXpressoIDE_11.2.0_4120\workspace\lpc_chip_175x_6x\Debug\liblpc_chip_175x_6x.a(chip_17xx_40xx.o)
                0x1000039c                SystemCoreClock
                0x100003a0                . = ALIGN (0x4)
                0x100003a0                _ebss = .
                [!provide]                PROVIDE (__end_bss_RAM = .)
                [!provide]                PROVIDE (__end_bss_RamLoc32 = .)
                [!provide]                PROVIDE (end = .)

.noinit_RAM2    0x2007c000        0x0
                [!provide]                PROVIDE (__start_noinit_RAM2 = .)
                [!provide]                PROVIDE (__start_noinit_RamAHB32 = .)
 *(.noinit.$RAM2)
 *(.noinit.$RamAHB32)
 *(.noinit.$RAM2.*)
 *(.noinit.$RamAHB32.*)
                0x2007c000                . = ALIGN (0x4)
                [!provide]                PROVIDE (__end_noinit_RAM2 = .)
                [!provide]                PROVIDE (__end_noinit_RamAHB32 = .)

.noinit         0x100003a0        0x0
                0x100003a0                _noinit = .
                [!provide]                PROVIDE (__start_noinit_RAM = .)
                [!provide]                PROVIDE (__start_noinit_RamLoc32 = .)
 *(.noinit*)
                0x100003a0                . = ALIGN (0x4)
                0x100003a0                _end_noinit = .
                [!provide]                PROVIDE (__end_noinit_RAM = .)
                [!provide]                PROVIDE (__end_noinit_RamLoc32 = .)
                [!provide]                PROVIDE (_pvHeapStart = DEFINED (__user_heap_base)?__user_heap_base:.)
                0x10008000                PROVIDE (_vStackTop = DEFINED (__user_stack_top)?__user_stack_top:(__top_RamLoc32 - 0x0))
                0xefff74c6                PROVIDE (__valid_user_code_checksum = (0x0 - ((((((_vStackTop + (ResetISR + 0x1)) + (NMI_Handler + 0x1)) + (HardFault_Handler + 0x1)) + (DEFINED (MemManage_Handler)?MemManage_Handler:0x0 + 0x1)) + (DEFINED (BusFault_Handler)?BusFault_Handler:0x0 + 0x1)) + (DEFINED (UsageFault_Handler)?UsageFault_Handler:0x0 + 0x1))))
                0x00000000                _image_start = LOADADDR (.text)
                0x000019dc                _image_end = (LOADADDR (.data) + SIZEOF (.data))
                0x000019dc                _image_size = (_image_end - _image_start)
OUTPUT(GSM.axf elf32-littlearm)

.debug_info     0x00000000     0x4714
 .debug_info    0x00000000     0x10c7 ./src/GSM.o
 .debug_info    0x000010c7      0x272 ./src/cr_startup_lpc175x_6x.o
 .debug_info    0x00001339       0x40 ./src/crp.o
 .debug_info    0x00001379      0x20f ./src/sysinit.o
 .debug_info    0x00001588      0x591 C:\Users\ngent\Documents\MCUXpressoIDE_11.2.0_4120\workspace\lpc_chip_175x_6x\Debug\liblpc_chip_175x_6x.a(chip_17xx_40xx.o)
 .debug_info    0x00001b19      0xc2a C:\Users\ngent\Documents\MCUXpressoIDE_11.2.0_4120\workspace\lpc_chip_175x_6x\Debug\liblpc_chip_175x_6x.a(clock_17xx_40xx.o)
 .debug_info    0x00002743      0x347 C:\Users\ngent\Documents\MCUXpressoIDE_11.2.0_4120\workspace\lpc_chip_175x_6x\Debug\liblpc_chip_175x_6x.a(iocon_17xx_40xx.o)
 .debug_info    0x00002a8a      0x3a8 C:\Users\ngent\Documents\MCUXpressoIDE_11.2.0_4120\workspace\lpc_chip_175x_6x\Debug\liblpc_chip_175x_6x.a(ring_buffer.o)
 .debug_info    0x00002e32      0x4b0 C:\Users\ngent\Documents\MCUXpressoIDE_11.2.0_4120\workspace\lpc_chip_175x_6x\Debug\liblpc_chip_175x_6x.a(sysinit_17xx_40xx.o)
 .debug_info    0x000032e2      0x458 C:\Users\ngent\Documents\MCUXpressoIDE_11.2.0_4120\workspace\lpc_chip_175x_6x\Debug\liblpc_chip_175x_6x.a(timer_17xx_40xx.o)
 .debug_info    0x0000373a      0xfda C:\Users\ngent\Documents\MCUXpressoIDE_11.2.0_4120\workspace\lpc_chip_175x_6x\Debug\liblpc_chip_175x_6x.a(uart_17xx_40xx.o)

.debug_abbrev   0x00000000     0x137f
 .debug_abbrev  0x00000000      0x316 ./src/GSM.o
 .debug_abbrev  0x00000316      0x117 ./src/cr_startup_lpc175x_6x.o
 .debug_abbrev  0x0000042d       0x38 ./src/crp.o
 .debug_abbrev  0x00000465       0xeb ./src/sysinit.o
 .debug_abbrev  0x00000550      0x16d C:\Users\ngent\Documents\MCUXpressoIDE_11.2.0_4120\workspace\lpc_chip_175x_6x\Debug\liblpc_chip_175x_6x.a(chip_17xx_40xx.o)
 .debug_abbrev  0x000006bd      0x34d C:\Users\ngent\Documents\MCUXpressoIDE_11.2.0_4120\workspace\lpc_chip_175x_6x\Debug\liblpc_chip_175x_6x.a(clock_17xx_40xx.o)
 .debug_abbrev  0x00000a0a      0x164 C:\Users\ngent\Documents\MCUXpressoIDE_11.2.0_4120\workspace\lpc_chip_175x_6x\Debug\liblpc_chip_175x_6x.a(iocon_17xx_40xx.o)
 .debug_abbrev  0x00000b6e      0x17e C:\Users\ngent\Documents\MCUXpressoIDE_11.2.0_4120\workspace\lpc_chip_175x_6x\Debug\liblpc_chip_175x_6x.a(ring_buffer.o)
 .debug_abbrev  0x00000cec      0x1b0 C:\Users\ngent\Documents\MCUXpressoIDE_11.2.0_4120\workspace\lpc_chip_175x_6x\Debug\liblpc_chip_175x_6x.a(sysinit_17xx_40xx.o)
 .debug_abbrev  0x00000e9c      0x18f C:\Users\ngent\Documents\MCUXpressoIDE_11.2.0_4120\workspace\lpc_chip_175x_6x\Debug\liblpc_chip_175x_6x.a(timer_17xx_40xx.o)
 .debug_abbrev  0x0000102b      0x354 C:\Users\ngent\Documents\MCUXpressoIDE_11.2.0_4120\workspace\lpc_chip_175x_6x\Debug\liblpc_chip_175x_6x.a(uart_17xx_40xx.o)

.debug_aranges  0x00000000      0x538
 .debug_aranges
                0x00000000       0xd0 ./src/GSM.o
 .debug_aranges
                0x000000d0       0x80 ./src/cr_startup_lpc175x_6x.o
 .debug_aranges
                0x00000150       0x18 ./src/crp.o
 .debug_aranges
                0x00000168       0x20 ./src/sysinit.o
 .debug_aranges
                0x00000188       0x38 C:\Users\ngent\Documents\MCUXpressoIDE_11.2.0_4120\workspace\lpc_chip_175x_6x\Debug\liblpc_chip_175x_6x.a(chip_17xx_40xx.o)
 .debug_aranges
                0x000001c0      0x120 C:\Users\ngent\Documents\MCUXpressoIDE_11.2.0_4120\workspace\lpc_chip_175x_6x\Debug\liblpc_chip_175x_6x.a(clock_17xx_40xx.o)
 .debug_aranges
                0x000002e0       0x30 C:\Users\ngent\Documents\MCUXpressoIDE_11.2.0_4120\workspace\lpc_chip_175x_6x\Debug\liblpc_chip_175x_6x.a(iocon_17xx_40xx.o)
 .debug_aranges
                0x00000310       0x60 C:\Users\ngent\Documents\MCUXpressoIDE_11.2.0_4120\workspace\lpc_chip_175x_6x\Debug\liblpc_chip_175x_6x.a(ring_buffer.o)
 .debug_aranges
                0x00000370       0x60 C:\Users\ngent\Documents\MCUXpressoIDE_11.2.0_4120\workspace\lpc_chip_175x_6x\Debug\liblpc_chip_175x_6x.a(sysinit_17xx_40xx.o)
 .debug_aranges
                0x000003d0       0x40 C:\Users\ngent\Documents\MCUXpressoIDE_11.2.0_4120\workspace\lpc_chip_175x_6x\Debug\liblpc_chip_175x_6x.a(timer_17xx_40xx.o)
 .debug_aranges
                0x00000410      0x128 C:\Users\ngent\Documents\MCUXpressoIDE_11.2.0_4120\workspace\lpc_chip_175x_6x\Debug\liblpc_chip_175x_6x.a(uart_17xx_40xx.o)

.debug_ranges   0x00000000      0x480
 .debug_ranges  0x00000000       0xc0 ./src/GSM.o
 .debug_ranges  0x000000c0       0x70 ./src/cr_startup_lpc175x_6x.o
 .debug_ranges  0x00000130       0x10 ./src/sysinit.o
 .debug_ranges  0x00000140       0x28 C:\Users\ngent\Documents\MCUXpressoIDE_11.2.0_4120\workspace\lpc_chip_175x_6x\Debug\liblpc_chip_175x_6x.a(chip_17xx_40xx.o)
 .debug_ranges  0x00000168      0x110 C:\Users\ngent\Documents\MCUXpressoIDE_11.2.0_4120\workspace\lpc_chip_175x_6x\Debug\liblpc_chip_175x_6x.a(clock_17xx_40xx.o)
 .debug_ranges  0x00000278       0x20 C:\Users\ngent\Documents\MCUXpressoIDE_11.2.0_4120\workspace\lpc_chip_175x_6x\Debug\liblpc_chip_175x_6x.a(iocon_17xx_40xx.o)
 .debug_ranges  0x00000298       0x50 C:\Users\ngent\Documents\MCUXpressoIDE_11.2.0_4120\workspace\lpc_chip_175x_6x\Debug\liblpc_chip_175x_6x.a(ring_buffer.o)
 .debug_ranges  0x000002e8       0x50 C:\Users\ngent\Documents\MCUXpressoIDE_11.2.0_4120\workspace\lpc_chip_175x_6x\Debug\liblpc_chip_175x_6x.a(sysinit_17xx_40xx.o)
 .debug_ranges  0x00000338       0x30 C:\Users\ngent\Documents\MCUXpressoIDE_11.2.0_4120\workspace\lpc_chip_175x_6x\Debug\liblpc_chip_175x_6x.a(timer_17xx_40xx.o)
 .debug_ranges  0x00000368      0x118 C:\Users\ngent\Documents\MCUXpressoIDE_11.2.0_4120\workspace\lpc_chip_175x_6x\Debug\liblpc_chip_175x_6x.a(uart_17xx_40xx.o)

.debug_macro    0x00000000     0x545b
 .debug_macro   0x00000000      0x21a ./src/GSM.o
 .debug_macro   0x0000021a      0xab4 ./src/GSM.o
 .debug_macro   0x00000cce       0x10 ./src/GSM.o
 .debug_macro   0x00000cde      0x12e ./src/GSM.o
 .debug_macro   0x00000e0c      0x5b3 ./src/GSM.o
 .debug_macro   0x000013bf       0x22 ./src/GSM.o
 .debug_macro   0x000013e1       0x7b ./src/GSM.o
 .debug_macro   0x0000145c       0x10 ./src/GSM.o
 .debug_macro   0x0000146c       0x2d ./src/GSM.o
 .debug_macro   0x00001499       0x3a ./src/GSM.o
 .debug_macro   0x000014d3       0x2d ./src/GSM.o
 .debug_macro   0x00001500      0xbb1 ./src/GSM.o
 .debug_macro   0x000020b1      0x22c ./src/GSM.o
 .debug_macro   0x000022dd       0x42 ./src/GSM.o
 .debug_macro   0x0000231f       0x52 ./src/GSM.o
 .debug_macro   0x00002371       0x78 ./src/GSM.o
 .debug_macro   0x000023e9       0x82 ./src/GSM.o
 .debug_macro   0x0000246b      0x48c ./src/GSM.o
 .debug_macro   0x000028f7       0x34 ./src/GSM.o
 .debug_macro   0x0000292b      0x4c5 ./src/GSM.o
 .debug_macro   0x00002df0      0x1b7 ./src/GSM.o
 .debug_macro   0x00002fa7       0x10 ./src/GSM.o
 .debug_macro   0x00002fb7      0x21b ./src/GSM.o
 .debug_macro   0x000031d2      0x1b9 ./src/GSM.o
 .debug_macro   0x0000338b       0x40 ./src/GSM.o
 .debug_macro   0x000033cb       0x22 ./src/GSM.o
 .debug_macro   0x000033ed      0x162 ./src/GSM.o
 .debug_macro   0x0000354f       0x94 ./src/GSM.o
 .debug_macro   0x000035e3       0xb8 ./src/GSM.o
 .debug_macro   0x0000369b       0x4c ./src/GSM.o
 .debug_macro   0x000036e7       0x16 ./src/GSM.o
 .debug_macro   0x000036fd      0x328 ./src/GSM.o
 .debug_macro   0x00003a25       0x49 ./src/GSM.o
 .debug_macro   0x00003a6e       0x16 ./src/GSM.o
 .debug_macro   0x00003a84       0xca ./src/GSM.o
 .debug_macro   0x00003b4e       0x18 ./src/GSM.o
 .debug_macro   0x00003b66       0x40 ./src/GSM.o
 .debug_macro   0x00003ba6       0x1d ./src/cr_startup_lpc175x_6x.o
 .debug_macro   0x00003bc3       0x1a ./src/crp.o
 .debug_macro   0x00003bdd       0x34 ./src/crp.o
 .debug_macro   0x00003c11      0x1cd ./src/sysinit.o
 .debug_macro   0x00003dde      0x1cd C:\Users\ngent\Documents\MCUXpressoIDE_11.2.0_4120\workspace\lpc_chip_175x_6x\Debug\liblpc_chip_175x_6x.a(chip_17xx_40xx.o)
 .debug_macro   0x00003fab      0xaa8 C:\Users\ngent\Documents\MCUXpressoIDE_11.2.0_4120\workspace\lpc_chip_175x_6x\Debug\liblpc_chip_175x_6x.a(chip_17xx_40xx.o)
 .debug_macro   0x00004a53      0x1cd C:\Users\ngent\Documents\MCUXpressoIDE_11.2.0_4120\workspace\lpc_chip_175x_6x\Debug\liblpc_chip_175x_6x.a(clock_17xx_40xx.o)
 .debug_macro   0x00004c20      0x1cd C:\Users\ngent\Documents\MCUXpressoIDE_11.2.0_4120\workspace\lpc_chip_175x_6x\Debug\liblpc_chip_175x_6x.a(iocon_17xx_40xx.o)
 .debug_macro   0x00004ded       0x83 C:\Users\ngent\Documents\MCUXpressoIDE_11.2.0_4120\workspace\lpc_chip_175x_6x\Debug\liblpc_chip_175x_6x.a(ring_buffer.o)
 .debug_macro   0x00004e70       0x74 C:\Users\ngent\Documents\MCUXpressoIDE_11.2.0_4120\workspace\lpc_chip_175x_6x\Debug\liblpc_chip_175x_6x.a(ring_buffer.o)
 .debug_macro   0x00004ee4       0x10 C:\Users\ngent\Documents\MCUXpressoIDE_11.2.0_4120\workspace\lpc_chip_175x_6x\Debug\liblpc_chip_175x_6x.a(ring_buffer.o)
 .debug_macro   0x00004ef4      0x1cd C:\Users\ngent\Documents\MCUXpressoIDE_11.2.0_4120\workspace\lpc_chip_175x_6x\Debug\liblpc_chip_175x_6x.a(sysinit_17xx_40xx.o)
 .debug_macro   0x000050c1      0x1cd C:\Users\ngent\Documents\MCUXpressoIDE_11.2.0_4120\workspace\lpc_chip_175x_6x\Debug\liblpc_chip_175x_6x.a(timer_17xx_40xx.o)
 .debug_macro   0x0000528e      0x1cd C:\Users\ngent\Documents\MCUXpressoIDE_11.2.0_4120\workspace\lpc_chip_175x_6x\Debug\liblpc_chip_175x_6x.a(uart_17xx_40xx.o)

.debug_line     0x00000000     0x3dd9
 .debug_line    0x00000000      0x990 ./src/GSM.o
 .debug_line    0x00000990      0x160 ./src/cr_startup_lpc175x_6x.o
 .debug_line    0x00000af0       0xb1 ./src/crp.o
 .debug_line    0x00000ba1      0x48d ./src/sysinit.o
 .debug_line    0x0000102e      0x521 C:\Users\ngent\Documents\MCUXpressoIDE_11.2.0_4120\workspace\lpc_chip_175x_6x\Debug\liblpc_chip_175x_6x.a(chip_17xx_40xx.o)
 .debug_line    0x0000154f      0x988 C:\Users\ngent\Documents\MCUXpressoIDE_11.2.0_4120\workspace\lpc_chip_175x_6x\Debug\liblpc_chip_175x_6x.a(clock_17xx_40xx.o)
 .debug_line    0x00001ed7      0x53d C:\Users\ngent\Documents\MCUXpressoIDE_11.2.0_4120\workspace\lpc_chip_175x_6x\Debug\liblpc_chip_175x_6x.a(iocon_17xx_40xx.o)
 .debug_line    0x00002414      0x429 C:\Users\ngent\Documents\MCUXpressoIDE_11.2.0_4120\workspace\lpc_chip_175x_6x\Debug\liblpc_chip_175x_6x.a(ring_buffer.o)
 .debug_line    0x0000283d      0x5fa C:\Users\ngent\Documents\MCUXpressoIDE_11.2.0_4120\workspace\lpc_chip_175x_6x\Debug\liblpc_chip_175x_6x.a(sysinit_17xx_40xx.o)
 .debug_line    0x00002e37      0x540 C:\Users\ngent\Documents\MCUXpressoIDE_11.2.0_4120\workspace\lpc_chip_175x_6x\Debug\liblpc_chip_175x_6x.a(timer_17xx_40xx.o)
 .debug_line    0x00003377      0xa62 C:\Users\ngent\Documents\MCUXpressoIDE_11.2.0_4120\workspace\lpc_chip_175x_6x\Debug\liblpc_chip_175x_6x.a(uart_17xx_40xx.o)

.debug_str      0x00000000    0x12e2d
 .debug_str     0x00000000    0x11875 ./src/GSM.o
                              0x119d4 (size before relaxing)
 .debug_str     0x00011875      0x1d6 ./src/cr_startup_lpc175x_6x.o
                               0x2ffe (size before relaxing)
 .debug_str     0x00011a4b       0xe9 ./src/crp.o
                               0x2f0b (size before relaxing)
 .debug_str     0x00011b34       0x1b ./src/sysinit.o
                              0x11020 (size before relaxing)
 .debug_str     0x00011b4f      0x558 C:\Users\ngent\Documents\MCUXpressoIDE_11.2.0_4120\workspace\lpc_chip_175x_6x\Debug\liblpc_chip_175x_6x.a(chip_17xx_40xx.o)
                              0x11429 (size before relaxing)
 .debug_str     0x000120a7      0x628 C:\Users\ngent\Documents\MCUXpressoIDE_11.2.0_4120\workspace\lpc_chip_175x_6x\Debug\liblpc_chip_175x_6x.a(clock_17xx_40xx.o)
                              0x11aa7 (size before relaxing)
 .debug_str     0x000126cf       0xa9 C:\Users\ngent\Documents\MCUXpressoIDE_11.2.0_4120\workspace\lpc_chip_175x_6x\Debug\liblpc_chip_175x_6x.a(iocon_17xx_40xx.o)
                              0x10f24 (size before relaxing)
 .debug_str     0x00012778      0x149 C:\Users\ngent\Documents\MCUXpressoIDE_11.2.0_4120\workspace\lpc_chip_175x_6x\Debug\liblpc_chip_175x_6x.a(ring_buffer.o)
                               0x4910 (size before relaxing)
 .debug_str     0x000128c1       0xc4 C:\Users\ngent\Documents\MCUXpressoIDE_11.2.0_4120\workspace\lpc_chip_175x_6x\Debug\liblpc_chip_175x_6x.a(sysinit_17xx_40xx.o)
                              0x1110c (size before relaxing)
 .debug_str     0x00012985      0x131 C:\Users\ngent\Documents\MCUXpressoIDE_11.2.0_4120\workspace\lpc_chip_175x_6x\Debug\liblpc_chip_175x_6x.a(timer_17xx_40xx.o)
                              0x11255 (size before relaxing)
 .debug_str     0x00012ab6      0x377 C:\Users\ngent\Documents\MCUXpressoIDE_11.2.0_4120\workspace\lpc_chip_175x_6x\Debug\liblpc_chip_175x_6x.a(uart_17xx_40xx.o)
                              0x1197c (size before relaxing)

.comment        0x00000000       0x79
 .comment       0x00000000       0x79 ./src/GSM.o
                                 0x7a (size before relaxing)
 .comment       0x00000079       0x7a ./src/cr_startup_lpc175x_6x.o
 .comment       0x00000079       0x7a ./src/crp.o
 .comment       0x00000079       0x7a ./src/sysinit.o
 .comment       0x00000079       0x7a C:\Users\ngent\Documents\MCUXpressoIDE_11.2.0_4120\workspace\lpc_chip_175x_6x\Debug\liblpc_chip_175x_6x.a(chip_17xx_40xx.o)
 .comment       0x00000079       0x7a C:\Users\ngent\Documents\MCUXpressoIDE_11.2.0_4120\workspace\lpc_chip_175x_6x\Debug\liblpc_chip_175x_6x.a(clock_17xx_40xx.o)
 .comment       0x00000079       0x7a C:\Users\ngent\Documents\MCUXpressoIDE_11.2.0_4120\workspace\lpc_chip_175x_6x\Debug\liblpc_chip_175x_6x.a(iocon_17xx_40xx.o)
 .comment       0x00000079       0x7a C:\Users\ngent\Documents\MCUXpressoIDE_11.2.0_4120\workspace\lpc_chip_175x_6x\Debug\liblpc_chip_175x_6x.a(ring_buffer.o)
 .comment       0x00000079       0x7a C:\Users\ngent\Documents\MCUXpressoIDE_11.2.0_4120\workspace\lpc_chip_175x_6x\Debug\liblpc_chip_175x_6x.a(sysinit_17xx_40xx.o)
 .comment       0x00000079       0x7a C:\Users\ngent\Documents\MCUXpressoIDE_11.2.0_4120\workspace\lpc_chip_175x_6x\Debug\liblpc_chip_175x_6x.a(timer_17xx_40xx.o)
 .comment       0x00000079       0x7a C:\Users\ngent\Documents\MCUXpressoIDE_11.2.0_4120\workspace\lpc_chip_175x_6x\Debug\liblpc_chip_175x_6x.a(uart_17xx_40xx.o)
 .comment       0x00000079       0x7a c:/nxp/mcuxpressoide_11.2.0_4120/ide/plugins/com.nxp.mcuxpresso.tools.win32_11.2.0.202001021529/tools/bin/../lib/gcc/arm-none-eabi/9.2.1/../../../../arm-none-eabi/lib/thumb/v7-m/nofp\libcr_c.a(memcpy.o)
 .comment       0x00000079       0x7a c:/nxp/mcuxpressoide_11.2.0_4120/ide/plugins/com.nxp.mcuxpresso.tools.win32_11.2.0.202001021529/tools/bin/../lib/gcc/arm-none-eabi/9.2.1/../../../../arm-none-eabi/lib/thumb/v7-m/nofp\libcr_c.a(__weak__main.o)

.ARM.attributes
                0x00000000       0x2b
 .ARM.attributes
                0x00000000       0x2d ./src/GSM.o
 .ARM.attributes
                0x0000002d       0x2d ./src/cr_startup_lpc175x_6x.o
 .ARM.attributes
                0x0000005a       0x33 ./src/crp.o
 .ARM.attributes
                0x0000008d       0x2d ./src/sysinit.o
 .ARM.attributes
                0x000000ba       0x2d C:\Users\ngent\Documents\MCUXpressoIDE_11.2.0_4120\workspace\lpc_chip_175x_6x\Debug\liblpc_chip_175x_6x.a(chip_17xx_40xx.o)
 .ARM.attributes
                0x000000e7       0x2d C:\Users\ngent\Documents\MCUXpressoIDE_11.2.0_4120\workspace\lpc_chip_175x_6x\Debug\liblpc_chip_175x_6x.a(clock_17xx_40xx.o)
 .ARM.attributes
                0x00000114       0x2d C:\Users\ngent\Documents\MCUXpressoIDE_11.2.0_4120\workspace\lpc_chip_175x_6x\Debug\liblpc_chip_175x_6x.a(iocon_17xx_40xx.o)
 .ARM.attributes
                0x00000141       0x2d C:\Users\ngent\Documents\MCUXpressoIDE_11.2.0_4120\workspace\lpc_chip_175x_6x\Debug\liblpc_chip_175x_6x.a(ring_buffer.o)
 .ARM.attributes
                0x0000016e       0x2d C:\Users\ngent\Documents\MCUXpressoIDE_11.2.0_4120\workspace\lpc_chip_175x_6x\Debug\liblpc_chip_175x_6x.a(sysinit_17xx_40xx.o)
 .ARM.attributes
                0x0000019b       0x2d C:\Users\ngent\Documents\MCUXpressoIDE_11.2.0_4120\workspace\lpc_chip_175x_6x\Debug\liblpc_chip_175x_6x.a(timer_17xx_40xx.o)
 .ARM.attributes
                0x000001c8       0x2d C:\Users\ngent\Documents\MCUXpressoIDE_11.2.0_4120\workspace\lpc_chip_175x_6x\Debug\liblpc_chip_175x_6x.a(uart_17xx_40xx.o)
 .ARM.attributes
                0x000001f5       0x2d c:/nxp/mcuxpressoide_11.2.0_4120/ide/plugins/com.nxp.mcuxpresso.tools.win32_11.2.0.202001021529/tools/bin/../lib/gcc/arm-none-eabi/9.2.1/../../../../arm-none-eabi/lib/thumb/v7-m/nofp\libcr_c.a(memcpy.o)
 .ARM.attributes
                0x00000222       0x2d c:/nxp/mcuxpressoide_11.2.0_4120/ide/plugins/com.nxp.mcuxpresso.tools.win32_11.2.0.202001021529/tools/bin/../lib/gcc/arm-none-eabi/9.2.1/../../../../arm-none-eabi/lib/thumb/v7-m/nofp\libcr_c.a(__weak__main.o)
 .ARM.attributes
                0x0000024f       0x1b c:/nxp/mcuxpressoide_11.2.0_4120/ide/plugins/com.nxp.mcuxpresso.tools.win32_11.2.0.202001021529/tools/bin/../lib/gcc/arm-none-eabi/9.2.1/thumb/v7-m/nofp\libcr_eabihelpers.a(memcpy.o)

.debug_frame    0x00000000     0x1308
 .debug_frame   0x00000000      0x33c ./src/GSM.o
 .debug_frame   0x0000033c      0x170 ./src/cr_startup_lpc175x_6x.o
 .debug_frame   0x000004ac       0x34 ./src/sysinit.o
 .debug_frame   0x000004e0       0x88 C:\Users\ngent\Documents\MCUXpressoIDE_11.2.0_4120\workspace\lpc_chip_175x_6x\Debug\liblpc_chip_175x_6x.a(chip_17xx_40xx.o)
 .debug_frame   0x00000568      0x490 C:\Users\ngent\Documents\MCUXpressoIDE_11.2.0_4120\workspace\lpc_chip_175x_6x\Debug\liblpc_chip_175x_6x.a(clock_17xx_40xx.o)
 .debug_frame   0x000009f8       0x80 C:\Users\ngent\Documents\MCUXpressoIDE_11.2.0_4120\workspace\lpc_chip_175x_6x\Debug\liblpc_chip_175x_6x.a(iocon_17xx_40xx.o)
 .debug_frame   0x00000a78      0x164 C:\Users\ngent\Documents\MCUXpressoIDE_11.2.0_4120\workspace\lpc_chip_175x_6x\Debug\liblpc_chip_175x_6x.a(ring_buffer.o)
 .debug_frame   0x00000bdc      0x12c C:\Users\ngent\Documents\MCUXpressoIDE_11.2.0_4120\workspace\lpc_chip_175x_6x\Debug\liblpc_chip_175x_6x.a(sysinit_17xx_40xx.o)
 .debug_frame   0x00000d08       0xd0 C:\Users\ngent\Documents\MCUXpressoIDE_11.2.0_4120\workspace\lpc_chip_175x_6x\Debug\liblpc_chip_175x_6x.a(timer_17xx_40xx.o)
 .debug_frame   0x00000dd8      0x530 C:\Users\ngent\Documents\MCUXpressoIDE_11.2.0_4120\workspace\lpc_chip_175x_6x\Debug\liblpc_chip_175x_6x.a(uart_17xx_40xx.o)

Cross Reference Table

Symbol                                            File
ADC_IRQHandler                                    ./src/cr_startup_lpc175x_6x.o
BOD_IRQHandler                                    ./src/cr_startup_lpc175x_6x.o
BusFault_Handler                                  ./src/cr_startup_lpc175x_6x.o
CANActivity_IRQHandler                            ./src/cr_startup_lpc175x_6x.o
CAN_IRQHandler                                    ./src/cr_startup_lpc175x_6x.o
CRP_WORD                                          ./src/crp.o
Chip_Clock_DisablePLL                             C:\Users\ngent\Documents\MCUXpressoIDE_11.2.0_4120\workspace\lpc_chip_175x_6x\Debug\liblpc_chip_175x_6x.a(clock_17xx_40xx.o)
                                                  C:\Users\ngent\Documents\MCUXpressoIDE_11.2.0_4120\workspace\lpc_chip_175x_6x\Debug\liblpc_chip_175x_6x.a(sysinit_17xx_40xx.o)
Chip_Clock_DisablePeriphClock                     C:\Users\ngent\Documents\MCUXpressoIDE_11.2.0_4120\workspace\lpc_chip_175x_6x\Debug\liblpc_chip_175x_6x.a(clock_17xx_40xx.o)
                                                  C:\Users\ngent\Documents\MCUXpressoIDE_11.2.0_4120\workspace\lpc_chip_175x_6x\Debug\liblpc_chip_175x_6x.a(uart_17xx_40xx.o)
                                                  C:\Users\ngent\Documents\MCUXpressoIDE_11.2.0_4120\workspace\lpc_chip_175x_6x\Debug\liblpc_chip_175x_6x.a(timer_17xx_40xx.o)
Chip_Clock_EnablePLL                              C:\Users\ngent\Documents\MCUXpressoIDE_11.2.0_4120\workspace\lpc_chip_175x_6x\Debug\liblpc_chip_175x_6x.a(clock_17xx_40xx.o)
                                                  C:\Users\ngent\Documents\MCUXpressoIDE_11.2.0_4120\workspace\lpc_chip_175x_6x\Debug\liblpc_chip_175x_6x.a(sysinit_17xx_40xx.o)
                                                  C:\Users\ngent\Documents\MCUXpressoIDE_11.2.0_4120\workspace\lpc_chip_175x_6x\Debug\liblpc_chip_175x_6x.a(chip_17xx_40xx.o)
Chip_Clock_EnablePeriphClock                      C:\Users\ngent\Documents\MCUXpressoIDE_11.2.0_4120\workspace\lpc_chip_175x_6x\Debug\liblpc_chip_175x_6x.a(clock_17xx_40xx.o)
                                                  C:\Users\ngent\Documents\MCUXpressoIDE_11.2.0_4120\workspace\lpc_chip_175x_6x\Debug\liblpc_chip_175x_6x.a(uart_17xx_40xx.o)
                                                  C:\Users\ngent\Documents\MCUXpressoIDE_11.2.0_4120\workspace\lpc_chip_175x_6x\Debug\liblpc_chip_175x_6x.a(timer_17xx_40xx.o)
                                                  C:\Users\ngent\Documents\MCUXpressoIDE_11.2.0_4120\workspace\lpc_chip_175x_6x\Debug\liblpc_chip_175x_6x.a(chip_17xx_40xx.o)
Chip_Clock_GetCPUClockDiv                         C:\Users\ngent\Documents\MCUXpressoIDE_11.2.0_4120\workspace\lpc_chip_175x_6x\Debug\liblpc_chip_175x_6x.a(clock_17xx_40xx.o)
Chip_Clock_GetCPUClockSource                      C:\Users\ngent\Documents\MCUXpressoIDE_11.2.0_4120\workspace\lpc_chip_175x_6x\Debug\liblpc_chip_175x_6x.a(clock_17xx_40xx.o)
Chip_Clock_GetMainClockRate                       C:\Users\ngent\Documents\MCUXpressoIDE_11.2.0_4120\workspace\lpc_chip_175x_6x\Debug\liblpc_chip_175x_6x.a(clock_17xx_40xx.o)
Chip_Clock_GetMainPLLOutClockRate                 C:\Users\ngent\Documents\MCUXpressoIDE_11.2.0_4120\workspace\lpc_chip_175x_6x\Debug\liblpc_chip_175x_6x.a(clock_17xx_40xx.o)
Chip_Clock_GetPCLKDiv                             C:\Users\ngent\Documents\MCUXpressoIDE_11.2.0_4120\workspace\lpc_chip_175x_6x\Debug\liblpc_chip_175x_6x.a(clock_17xx_40xx.o)
Chip_Clock_GetPeripheralClockRate                 C:\Users\ngent\Documents\MCUXpressoIDE_11.2.0_4120\workspace\lpc_chip_175x_6x\Debug\liblpc_chip_175x_6x.a(clock_17xx_40xx.o)
                                                  C:\Users\ngent\Documents\MCUXpressoIDE_11.2.0_4120\workspace\lpc_chip_175x_6x\Debug\liblpc_chip_175x_6x.a(uart_17xx_40xx.o)
                                                  ./src/GSM.o
Chip_Clock_GetSYSCLKRate                          C:\Users\ngent\Documents\MCUXpressoIDE_11.2.0_4120\workspace\lpc_chip_175x_6x\Debug\liblpc_chip_175x_6x.a(clock_17xx_40xx.o)
Chip_Clock_GetSystemClockRate                     C:\Users\ngent\Documents\MCUXpressoIDE_11.2.0_4120\workspace\lpc_chip_175x_6x\Debug\liblpc_chip_175x_6x.a(clock_17xx_40xx.o)
                                                  C:\Users\ngent\Documents\MCUXpressoIDE_11.2.0_4120\workspace\lpc_chip_175x_6x\Debug\liblpc_chip_175x_6x.a(chip_17xx_40xx.o)
Chip_Clock_GetUSBClockDiv                         C:\Users\ngent\Documents\MCUXpressoIDE_11.2.0_4120\workspace\lpc_chip_175x_6x\Debug\liblpc_chip_175x_6x.a(clock_17xx_40xx.o)
Chip_Clock_GetUSBClockRate                        C:\Users\ngent\Documents\MCUXpressoIDE_11.2.0_4120\workspace\lpc_chip_175x_6x\Debug\liblpc_chip_175x_6x.a(clock_17xx_40xx.o)
Chip_Clock_GetUSBPLLOutClockRate                  C:\Users\ngent\Documents\MCUXpressoIDE_11.2.0_4120\workspace\lpc_chip_175x_6x\Debug\liblpc_chip_175x_6x.a(clock_17xx_40xx.o)
Chip_Clock_IsPeripheralClockEnabled               C:\Users\ngent\Documents\MCUXpressoIDE_11.2.0_4120\workspace\lpc_chip_175x_6x\Debug\liblpc_chip_175x_6x.a(clock_17xx_40xx.o)
Chip_Clock_SetCLKOUTSource                        C:\Users\ngent\Documents\MCUXpressoIDE_11.2.0_4120\workspace\lpc_chip_175x_6x\Debug\liblpc_chip_175x_6x.a(clock_17xx_40xx.o)
Chip_Clock_SetCPUClockDiv                         C:\Users\ngent\Documents\MCUXpressoIDE_11.2.0_4120\workspace\lpc_chip_175x_6x\Debug\liblpc_chip_175x_6x.a(clock_17xx_40xx.o)
                                                  C:\Users\ngent\Documents\MCUXpressoIDE_11.2.0_4120\workspace\lpc_chip_175x_6x\Debug\liblpc_chip_175x_6x.a(sysinit_17xx_40xx.o)
Chip_Clock_SetCPUClockSource                      C:\Users\ngent\Documents\MCUXpressoIDE_11.2.0_4120\workspace\lpc_chip_175x_6x\Debug\liblpc_chip_175x_6x.a(clock_17xx_40xx.o)
Chip_Clock_SetPCLKDiv                             C:\Users\ngent\Documents\MCUXpressoIDE_11.2.0_4120\workspace\lpc_chip_175x_6x\Debug\liblpc_chip_175x_6x.a(clock_17xx_40xx.o)
Chip_Clock_SetUSBClockDiv                         C:\Users\ngent\Documents\MCUXpressoIDE_11.2.0_4120\workspace\lpc_chip_175x_6x\Debug\liblpc_chip_175x_6x.a(clock_17xx_40xx.o)
Chip_Clock_SetupPLL                               C:\Users\ngent\Documents\MCUXpressoIDE_11.2.0_4120\workspace\lpc_chip_175x_6x\Debug\liblpc_chip_175x_6x.a(clock_17xx_40xx.o)
                                                  C:\Users\ngent\Documents\MCUXpressoIDE_11.2.0_4120\workspace\lpc_chip_175x_6x\Debug\liblpc_chip_175x_6x.a(sysinit_17xx_40xx.o)
                                                  C:\Users\ngent\Documents\MCUXpressoIDE_11.2.0_4120\workspace\lpc_chip_175x_6x\Debug\liblpc_chip_175x_6x.a(chip_17xx_40xx.o)
Chip_IOCON_PinMux                                 C:\Users\ngent\Documents\MCUXpressoIDE_11.2.0_4120\workspace\lpc_chip_175x_6x\Debug\liblpc_chip_175x_6x.a(iocon_17xx_40xx.o)
Chip_IOCON_PinMuxSet                              C:\Users\ngent\Documents\MCUXpressoIDE_11.2.0_4120\workspace\lpc_chip_175x_6x\Debug\liblpc_chip_175x_6x.a(iocon_17xx_40xx.o)
                                                  ./src/GSM.o
Chip_IOCON_SetPinMuxing                           C:\Users\ngent\Documents\MCUXpressoIDE_11.2.0_4120\workspace\lpc_chip_175x_6x\Debug\liblpc_chip_175x_6x.a(iocon_17xx_40xx.o)
Chip_SetupIrcClocking                             C:\Users\ngent\Documents\MCUXpressoIDE_11.2.0_4120\workspace\lpc_chip_175x_6x\Debug\liblpc_chip_175x_6x.a(sysinit_17xx_40xx.o)
Chip_SetupXtalClocking                            C:\Users\ngent\Documents\MCUXpressoIDE_11.2.0_4120\workspace\lpc_chip_175x_6x\Debug\liblpc_chip_175x_6x.a(sysinit_17xx_40xx.o)
Chip_SystemInit                                   C:\Users\ngent\Documents\MCUXpressoIDE_11.2.0_4120\workspace\lpc_chip_175x_6x\Debug\liblpc_chip_175x_6x.a(sysinit_17xx_40xx.o)
                                                  ./src/sysinit.o
Chip_TIMER_DeInit                                 C:\Users\ngent\Documents\MCUXpressoIDE_11.2.0_4120\workspace\lpc_chip_175x_6x\Debug\liblpc_chip_175x_6x.a(timer_17xx_40xx.o)
Chip_TIMER_ExtMatchControlSet                     C:\Users\ngent\Documents\MCUXpressoIDE_11.2.0_4120\workspace\lpc_chip_175x_6x\Debug\liblpc_chip_175x_6x.a(timer_17xx_40xx.o)
Chip_TIMER_Init                                   C:\Users\ngent\Documents\MCUXpressoIDE_11.2.0_4120\workspace\lpc_chip_175x_6x\Debug\liblpc_chip_175x_6x.a(timer_17xx_40xx.o)
                                                  ./src/GSM.o
Chip_TIMER_Reset                                  C:\Users\ngent\Documents\MCUXpressoIDE_11.2.0_4120\workspace\lpc_chip_175x_6x\Debug\liblpc_chip_175x_6x.a(timer_17xx_40xx.o)
                                                  ./src/GSM.o
Chip_UART_ABCmd                                   C:\Users\ngent\Documents\MCUXpressoIDE_11.2.0_4120\workspace\lpc_chip_175x_6x\Debug\liblpc_chip_175x_6x.a(uart_17xx_40xx.o)
Chip_UART_CheckBusy                               C:\Users\ngent\Documents\MCUXpressoIDE_11.2.0_4120\workspace\lpc_chip_175x_6x\Debug\liblpc_chip_175x_6x.a(uart_17xx_40xx.o)
Chip_UART_DeInit                                  C:\Users\ngent\Documents\MCUXpressoIDE_11.2.0_4120\workspace\lpc_chip_175x_6x\Debug\liblpc_chip_175x_6x.a(uart_17xx_40xx.o)
Chip_UART_GetABEOStatus                           C:\Users\ngent\Documents\MCUXpressoIDE_11.2.0_4120\workspace\lpc_chip_175x_6x\Debug\liblpc_chip_175x_6x.a(uart_17xx_40xx.o)
Chip_UART_IRQRBHandler                            C:\Users\ngent\Documents\MCUXpressoIDE_11.2.0_4120\workspace\lpc_chip_175x_6x\Debug\liblpc_chip_175x_6x.a(uart_17xx_40xx.o)
                                                  ./src/GSM.o
Chip_UART_Init                                    C:\Users\ngent\Documents\MCUXpressoIDE_11.2.0_4120\workspace\lpc_chip_175x_6x\Debug\liblpc_chip_175x_6x.a(uart_17xx_40xx.o)
                                                  ./src/GSM.o
Chip_UART_RXIntHandlerRB                          C:\Users\ngent\Documents\MCUXpressoIDE_11.2.0_4120\workspace\lpc_chip_175x_6x\Debug\liblpc_chip_175x_6x.a(uart_17xx_40xx.o)
Chip_UART_Read                                    C:\Users\ngent\Documents\MCUXpressoIDE_11.2.0_4120\workspace\lpc_chip_175x_6x\Debug\liblpc_chip_175x_6x.a(uart_17xx_40xx.o)
Chip_UART_ReadBlocking                            C:\Users\ngent\Documents\MCUXpressoIDE_11.2.0_4120\workspace\lpc_chip_175x_6x\Debug\liblpc_chip_175x_6x.a(uart_17xx_40xx.o)
Chip_UART_ReadRB                                  C:\Users\ngent\Documents\MCUXpressoIDE_11.2.0_4120\workspace\lpc_chip_175x_6x\Debug\liblpc_chip_175x_6x.a(uart_17xx_40xx.o)
                                                  ./src/GSM.o
Chip_UART_Send                                    C:\Users\ngent\Documents\MCUXpressoIDE_11.2.0_4120\workspace\lpc_chip_175x_6x\Debug\liblpc_chip_175x_6x.a(uart_17xx_40xx.o)
Chip_UART_SendBlocking                            C:\Users\ngent\Documents\MCUXpressoIDE_11.2.0_4120\workspace\lpc_chip_175x_6x\Debug\liblpc_chip_175x_6x.a(uart_17xx_40xx.o)
Chip_UART_SendRB                                  C:\Users\ngent\Documents\MCUXpressoIDE_11.2.0_4120\workspace\lpc_chip_175x_6x\Debug\liblpc_chip_175x_6x.a(uart_17xx_40xx.o)
                                                  ./src/GSM.o
Chip_UART_SetBaud                                 C:\Users\ngent\Documents\MCUXpressoIDE_11.2.0_4120\workspace\lpc_chip_175x_6x\Debug\liblpc_chip_175x_6x.a(uart_17xx_40xx.o)
                                                  ./src/GSM.o
Chip_UART_SetBaudFDR                              C:\Users\ngent\Documents\MCUXpressoIDE_11.2.0_4120\workspace\lpc_chip_175x_6x\Debug\liblpc_chip_175x_6x.a(uart_17xx_40xx.o)
Chip_UART_TXDisable                               C:\Users\ngent\Documents\MCUXpressoIDE_11.2.0_4120\workspace\lpc_chip_175x_6x\Debug\liblpc_chip_175x_6x.a(uart_17xx_40xx.o)
Chip_UART_TXEnable                                C:\Users\ngent\Documents\MCUXpressoIDE_11.2.0_4120\workspace\lpc_chip_175x_6x\Debug\liblpc_chip_175x_6x.a(uart_17xx_40xx.o)
                                                  ./src/GSM.o
Chip_UART_TXIntHandlerRB                          C:\Users\ngent\Documents\MCUXpressoIDE_11.2.0_4120\workspace\lpc_chip_175x_6x\Debug\liblpc_chip_175x_6x.a(uart_17xx_40xx.o)
Chip_USB_Init                                     C:\Users\ngent\Documents\MCUXpressoIDE_11.2.0_4120\workspace\lpc_chip_175x_6x\Debug\liblpc_chip_175x_6x.a(chip_17xx_40xx.o)
DMA_IRQHandler                                    ./src/cr_startup_lpc175x_6x.o
DebugMon_Handler                                  ./src/cr_startup_lpc175x_6x.o
EINT0_IRQHandler                                  ./src/cr_startup_lpc175x_6x.o
EINT1_IRQHandler                                  ./src/cr_startup_lpc175x_6x.o
EINT2_IRQHandler                                  ./src/cr_startup_lpc175x_6x.o
EINT3_IRQHandler                                  ./src/cr_startup_lpc175x_6x.o
ETH_IRQHandler                                    ./src/cr_startup_lpc175x_6x.o
HardFault_Handler                                 ./src/cr_startup_lpc175x_6x.o
I2C0_IRQHandler                                   ./src/cr_startup_lpc175x_6x.o
I2C1_IRQHandler                                   ./src/cr_startup_lpc175x_6x.o
I2C2_IRQHandler                                   ./src/cr_startup_lpc175x_6x.o
I2S_IRQHandler                                    ./src/cr_startup_lpc175x_6x.o
IntDefaultHandler                                 ./src/cr_startup_lpc175x_6x.o
MCPWM_IRQHandler                                  ./src/cr_startup_lpc175x_6x.o
MemManage_Handler                                 ./src/cr_startup_lpc175x_6x.o
NMI_Handler                                       ./src/cr_startup_lpc175x_6x.o
OscRateIn                                         ./src/sysinit.o
                                                  C:\Users\ngent\Documents\MCUXpressoIDE_11.2.0_4120\workspace\lpc_chip_175x_6x\Debug\liblpc_chip_175x_6x.a(clock_17xx_40xx.o)
PLL0_IRQHandler                                   ./src/cr_startup_lpc175x_6x.o
PLL1_IRQHandler                                   ./src/cr_startup_lpc175x_6x.o
PWM1_IRQHandler                                   ./src/cr_startup_lpc175x_6x.o
PendSV_Handler                                    ./src/cr_startup_lpc175x_6x.o
QEI_IRQHandler                                    ./src/cr_startup_lpc175x_6x.o
RIT_IRQHandler                                    ./src/cr_startup_lpc175x_6x.o
RTCOscRateIn                                      ./src/sysinit.o
                                                  C:\Users\ngent\Documents\MCUXpressoIDE_11.2.0_4120\workspace\lpc_chip_175x_6x\Debug\liblpc_chip_175x_6x.a(clock_17xx_40xx.o)
RTC_IRQHandler                                    ./src/cr_startup_lpc175x_6x.o
ResetISR                                          ./src/cr_startup_lpc175x_6x.o
RingBuffer_Init                                   C:\Users\ngent\Documents\MCUXpressoIDE_11.2.0_4120\workspace\lpc_chip_175x_6x\Debug\liblpc_chip_175x_6x.a(ring_buffer.o)
                                                  ./src/GSM.o
RingBuffer_Insert                                 C:\Users\ngent\Documents\MCUXpressoIDE_11.2.0_4120\workspace\lpc_chip_175x_6x\Debug\liblpc_chip_175x_6x.a(ring_buffer.o)
                                                  C:\Users\ngent\Documents\MCUXpressoIDE_11.2.0_4120\workspace\lpc_chip_175x_6x\Debug\liblpc_chip_175x_6x.a(uart_17xx_40xx.o)
RingBuffer_InsertMult                             C:\Users\ngent\Documents\MCUXpressoIDE_11.2.0_4120\workspace\lpc_chip_175x_6x\Debug\liblpc_chip_175x_6x.a(ring_buffer.o)
                                                  C:\Users\ngent\Documents\MCUXpressoIDE_11.2.0_4120\workspace\lpc_chip_175x_6x\Debug\liblpc_chip_175x_6x.a(uart_17xx_40xx.o)
RingBuffer_Pop                                    C:\Users\ngent\Documents\MCUXpressoIDE_11.2.0_4120\workspace\lpc_chip_175x_6x\Debug\liblpc_chip_175x_6x.a(ring_buffer.o)
                                                  C:\Users\ngent\Documents\MCUXpressoIDE_11.2.0_4120\workspace\lpc_chip_175x_6x\Debug\liblpc_chip_175x_6x.a(uart_17xx_40xx.o)
RingBuffer_PopMult                                C:\Users\ngent\Documents\MCUXpressoIDE_11.2.0_4120\workspace\lpc_chip_175x_6x\Debug\liblpc_chip_175x_6x.a(ring_buffer.o)
                                                  C:\Users\ngent\Documents\MCUXpressoIDE_11.2.0_4120\workspace\lpc_chip_175x_6x\Debug\liblpc_chip_175x_6x.a(uart_17xx_40xx.o)
SPI_IRQHandler                                    ./src/cr_startup_lpc175x_6x.o
SSP0_IRQHandler                                   ./src/cr_startup_lpc175x_6x.o
SSP1_IRQHandler                                   ./src/cr_startup_lpc175x_6x.o
SVC_Handler                                       ./src/cr_startup_lpc175x_6x.o
SerialDisponible                                  ./src/GSM.o
SysTick_Handler                                   ./src/cr_startup_lpc175x_6x.o
SystemCoreClock                                   C:\Users\ngent\Documents\MCUXpressoIDE_11.2.0_4120\workspace\lpc_chip_175x_6x\Debug\liblpc_chip_175x_6x.a(chip_17xx_40xx.o)
SystemCoreClockUpdate                             C:\Users\ngent\Documents\MCUXpressoIDE_11.2.0_4120\workspace\lpc_chip_175x_6x\Debug\liblpc_chip_175x_6x.a(chip_17xx_40xx.o)
                                                  ./src/GSM.o
SystemInit                                        ./src/sysinit.o
                                                  ./src/cr_startup_lpc175x_6x.o
TIMER0_IRQHandler                                 ./src/GSM.o
TIMER1_IRQHandler                                 ./src/cr_startup_lpc175x_6x.o
TIMER2_IRQHandler                                 ./src/cr_startup_lpc175x_6x.o
TIMER3_IRQHandler                                 ./src/cr_startup_lpc175x_6x.o
UART0_IRQHandler                                  ./src/cr_startup_lpc175x_6x.o
UART1_IRQHandler                                  ./src/cr_startup_lpc175x_6x.o
UART2_IRQHandler                                  ./src/cr_startup_lpc175x_6x.o
UART3_IRQHandler                                  ./src/GSM.o
USBActivity_IRQHandler                            ./src/cr_startup_lpc175x_6x.o
USB_IRQHandler                                    ./src/cr_startup_lpc175x_6x.o
UsageFault_Handler                                ./src/cr_startup_lpc175x_6x.o
WDT_IRQHandler                                    ./src/cr_startup_lpc175x_6x.o
__aeabi_idiv0                                     c:/nxp/mcuxpressoide_11.2.0_4120/ide/plugins/com.nxp.mcuxpresso.tools.win32_11.2.0.202001021529/tools/bin/../lib/gcc/arm-none-eabi/9.2.1/thumb/v7-m/nofp\libcr_eabihelpers.a(division_idiv0.o)
                                                  c:/nxp/mcuxpressoide_11.2.0_4120/ide/plugins/com.nxp.mcuxpresso.tools.win32_11.2.0.202001021529/tools/bin/../lib/gcc/arm-none-eabi/9.2.1/thumb/v7-m/nofp\libcr_eabihelpers.a(division_64.o)
__aeabi_ldivmod                                   c:/nxp/mcuxpressoide_11.2.0_4120/ide/plugins/com.nxp.mcuxpresso.tools.win32_11.2.0.202001021529/tools/bin/../lib/gcc/arm-none-eabi/9.2.1/thumb/v7-m/nofp\libcr_eabihelpers.a(division_64.o)
__aeabi_lowlevel_memset                           c:/nxp/mcuxpressoide_11.2.0_4120/ide/plugins/com.nxp.mcuxpresso.tools.win32_11.2.0.202001021529/tools/bin/../lib/gcc/arm-none-eabi/9.2.1/thumb/v7-m/nofp\libcr_eabihelpers.a(memcpy.o)
__aeabi_memclr                                    c:/nxp/mcuxpressoide_11.2.0_4120/ide/plugins/com.nxp.mcuxpresso.tools.win32_11.2.0.202001021529/tools/bin/../lib/gcc/arm-none-eabi/9.2.1/thumb/v7-m/nofp\libcr_eabihelpers.a(memcpy.o)
__aeabi_memclr4                                   c:/nxp/mcuxpressoide_11.2.0_4120/ide/plugins/com.nxp.mcuxpresso.tools.win32_11.2.0.202001021529/tools/bin/../lib/gcc/arm-none-eabi/9.2.1/thumb/v7-m/nofp\libcr_eabihelpers.a(memcpy.o)
__aeabi_memclr8                                   c:/nxp/mcuxpressoide_11.2.0_4120/ide/plugins/com.nxp.mcuxpresso.tools.win32_11.2.0.202001021529/tools/bin/../lib/gcc/arm-none-eabi/9.2.1/thumb/v7-m/nofp\libcr_eabihelpers.a(memcpy.o)
__aeabi_memcpy                                    c:/nxp/mcuxpressoide_11.2.0_4120/ide/plugins/com.nxp.mcuxpresso.tools.win32_11.2.0.202001021529/tools/bin/../lib/gcc/arm-none-eabi/9.2.1/thumb/v7-m/nofp\libcr_eabihelpers.a(memcpy.o)
                                                  c:/nxp/mcuxpressoide_11.2.0_4120/ide/plugins/com.nxp.mcuxpresso.tools.win32_11.2.0.202001021529/tools/bin/../lib/gcc/arm-none-eabi/9.2.1/../../../../arm-none-eabi/lib/thumb/v7-m/nofp\libcr_c.a(memcpy.o)
__aeabi_memcpy4                                   c:/nxp/mcuxpressoide_11.2.0_4120/ide/plugins/com.nxp.mcuxpresso.tools.win32_11.2.0.202001021529/tools/bin/../lib/gcc/arm-none-eabi/9.2.1/thumb/v7-m/nofp\libcr_eabihelpers.a(memcpy.o)
__aeabi_memcpy8                                   c:/nxp/mcuxpressoide_11.2.0_4120/ide/plugins/com.nxp.mcuxpresso.tools.win32_11.2.0.202001021529/tools/bin/../lib/gcc/arm-none-eabi/9.2.1/thumb/v7-m/nofp\libcr_eabihelpers.a(memcpy.o)
__aeabi_memmove                                   c:/nxp/mcuxpressoide_11.2.0_4120/ide/plugins/com.nxp.mcuxpresso.tools.win32_11.2.0.202001021529/tools/bin/../lib/gcc/arm-none-eabi/9.2.1/thumb/v7-m/nofp\libcr_eabihelpers.a(memcpy.o)
__aeabi_memmove4                                  c:/nxp/mcuxpressoide_11.2.0_4120/ide/plugins/com.nxp.mcuxpresso.tools.win32_11.2.0.202001021529/tools/bin/../lib/gcc/arm-none-eabi/9.2.1/thumb/v7-m/nofp\libcr_eabihelpers.a(memcpy.o)
__aeabi_memmove8                                  c:/nxp/mcuxpressoide_11.2.0_4120/ide/plugins/com.nxp.mcuxpresso.tools.win32_11.2.0.202001021529/tools/bin/../lib/gcc/arm-none-eabi/9.2.1/thumb/v7-m/nofp\libcr_eabihelpers.a(memcpy.o)
__aeabi_memset                                    c:/nxp/mcuxpressoide_11.2.0_4120/ide/plugins/com.nxp.mcuxpresso.tools.win32_11.2.0.202001021529/tools/bin/../lib/gcc/arm-none-eabi/9.2.1/thumb/v7-m/nofp\libcr_eabihelpers.a(memcpy.o)
__aeabi_memset4                                   c:/nxp/mcuxpressoide_11.2.0_4120/ide/plugins/com.nxp.mcuxpresso.tools.win32_11.2.0.202001021529/tools/bin/../lib/gcc/arm-none-eabi/9.2.1/thumb/v7-m/nofp\libcr_eabihelpers.a(memcpy.o)
__aeabi_memset8                                   c:/nxp/mcuxpressoide_11.2.0_4120/ide/plugins/com.nxp.mcuxpresso.tools.win32_11.2.0.202001021529/tools/bin/../lib/gcc/arm-none-eabi/9.2.1/thumb/v7-m/nofp\libcr_eabihelpers.a(memcpy.o)
__aeabi_uldivmod                                  c:/nxp/mcuxpressoide_11.2.0_4120/ide/plugins/com.nxp.mcuxpresso.tools.win32_11.2.0.202001021529/tools/bin/../lib/gcc/arm-none-eabi/9.2.1/thumb/v7-m/nofp\libcr_eabihelpers.a(division_64.o)
                                                  C:\Users\ngent\Documents\MCUXpressoIDE_11.2.0_4120\workspace\lpc_chip_175x_6x\Debug\liblpc_chip_175x_6x.a(uart_17xx_40xx.o)
__bhs_ldivmod1                                    c:/nxp/mcuxpressoide_11.2.0_4120/ide/plugins/com.nxp.mcuxpresso.tools.win32_11.2.0.202001021529/tools/bin/../lib/gcc/arm-none-eabi/9.2.1/thumb/v7-m/nofp\libcr_eabihelpers.a(division_64.o)
__bss_section_table_end                           ./src/cr_startup_lpc175x_6x.o
__data_section_table                              ./src/cr_startup_lpc175x_6x.o
__data_section_table_end                          ./src/cr_startup_lpc175x_6x.o
__main                                            c:/nxp/mcuxpressoide_11.2.0_4120/ide/plugins/com.nxp.mcuxpresso.tools.win32_11.2.0.202001021529/tools/bin/../lib/gcc/arm-none-eabi/9.2.1/../../../../arm-none-eabi/lib/thumb/v7-m/nofp\libcr_c.a(__weak__main.o)
                                                  ./src/cr_startup_lpc175x_6x.o
__valid_user_code_checksum                        ./src/cr_startup_lpc175x_6x.o
__weak_main                                       c:/nxp/mcuxpressoide_11.2.0_4120/ide/plugins/com.nxp.mcuxpresso.tools.win32_11.2.0.202001021529/tools/bin/../lib/gcc/arm-none-eabi/9.2.1/../../../../arm-none-eabi/lib/thumb/v7-m/nofp\libcr_c.a(__weak__main.o)
_vStackTop                                        ./src/cr_startup_lpc175x_6x.o
a                                                 ./src/GSM.o
bss_init                                          ./src/cr_startup_lpc175x_6x.o
bytes                                             ./src/GSM.o
c                                                 ./src/GSM.o
check                                             ./src/GSM.o
data_init                                         ./src/cr_startup_lpc175x_6x.o
enviocoordenadas                                  ./src/GSM.o
error                                             ./src/GSM.o
g_pfnVectors                                      ./src/cr_startup_lpc175x_6x.o
                                                  ./src/sysinit.o
i                                                 ./src/GSM.o
init_gsm                                          ./src/GSM.o
init_timer                                        ./src/GSM.o
init_uart                                         ./src/GSM.o
inst1                                             ./src/GSM.o
inst2                                             ./src/GSM.o
inst3                                             ./src/GSM.o
inst4                                             ./src/GSM.o
inst5                                             ./src/GSM.o
inst6                                             ./src/GSM.o
inst7                                             ./src/GSM.o
inst8                                             ./src/GSM.o
key                                               ./src/GSM.o
lectura                                           ./src/GSM.o
lecturagsm                                        ./src/GSM.o
main                                              ./src/GSM.o
                                                  c:/nxp/mcuxpressoide_11.2.0_4120/ide/plugins/com.nxp.mcuxpresso.tools.win32_11.2.0.202001021529/tools/bin/../lib/gcc/arm-none-eabi/9.2.1/../../../../arm-none-eabi/lib/thumb/v7-m/nofp\libcr_c.a(__weak__main.o)
memcpy                                            c:/nxp/mcuxpressoide_11.2.0_4120/ide/plugins/com.nxp.mcuxpresso.tools.win32_11.2.0.202001021529/tools/bin/../lib/gcc/arm-none-eabi/9.2.1/../../../../arm-none-eabi/lib/thumb/v7-m/nofp\libcr_c.a(memcpy.o)
                                                  C:\Users\ngent\Documents\MCUXpressoIDE_11.2.0_4120\workspace\lpc_chip_175x_6x\Debug\liblpc_chip_175x_6x.a(ring_buffer.o)
mensaje                                           ./src/GSM.o
numero                                            ./src/GSM.o
obtengonumero                                     ./src/GSM.o
sms                                               ./src/GSM.o
z                                                 ./src/GSM.o
